{"contractName":"EthCheckpointVerifier","abi":[{"inputs":[],"payable":false,"stateMutability":"nonpayable","type":"constructor"},{"constant":true,"inputs":[{"internalType":"bytes","name":"_rlpInput","type":"bytes"}],"name":"verify","outputs":[{"internalType":"bool","name":"","type":"bool"}],"payable":false,"stateMutability":"view","type":"function"}],"bytecode":"0x60806040526040518060a001604052807332162f3581e88a5f62e8a61892b42c46e2c18f7b73ffffffffffffffffffffffffffffffffffffffff1673ffffffffffffffffffffffffffffffffffffffff1681526020017378d1ad571a1a09d60d9bbf25894b44e4c885959573ffffffffffffffffffffffffffffffffffffffff1673ffffffffffffffffffffffffffffffffffffffff16815260200173286834935f4a8cfb4ff4c77d5770c2775ae2b0e773ffffffffffffffffffffffffffffffffffffffff1673ffffffffffffffffffffffffffffffffffffffff16815260200173b86e2b0ab5a4b1373e40c51a7c712c70ba2f9f8e73ffffffffffffffffffffffffffffffffffffffff1673ffffffffffffffffffffffffffffffffffffffff168152602001730df8fa387c602ae62559cc4afa4972a7045d670773ffffffffffffffffffffffffffffffffffffffff1673ffffffffffffffffffffffffffffffffffffffff16815250600090600561017b929190610230565b5034801561018857600080fd5b5060008090505b600581101561022a576001600560008084600581106101aa57fe5b0160009054906101000a900473ffffffffffffffffffffffffffffffffffffffff1673ffffffffffffffffffffffffffffffffffffffff1673ffffffffffffffffffffffffffffffffffffffff16815260200190815260200160002060006101000a81548160ff021916908315150217905550808060010191505061018f565b506102f0565b826005810192821561029c579160200282015b8281111561029b5782518260006101000a81548173ffffffffffffffffffffffffffffffffffffffff021916908373ffffffffffffffffffffffffffffffffffffffff16021790555091602001919060010190610243565b5b5090506102a991906102ad565b5090565b6102ed91905b808211156102e957600081816101000a81549073ffffffffffffffffffffffffffffffffffffffff0219169055506001016102b3565b5090565b90565b610c14806102ff6000396000f3fe608060405234801561001057600080fd5b506004361061002b5760003560e01c80638e760afe14610030575b600080fd5b6100e96004803603602081101561004657600080fd5b810190808035906020019064010000000081111561006357600080fd5b82018360208201111561007557600080fd5b8035906020019184600183028401116401000000008311171561009757600080fd5b91908080601f016020809104026020016040519081016040528093929190818152602001838380828437600081840152601f19601f820116905080830192505050505050509192919290505050610103565b604051808215151515815260200191505060405180910390f35b600061010d610b8b565b61011e6101198461034f565b61037d565b9050600061013d610136610131846103cb565b610425565b60006104b1565b9050600061015261014d846103cb565b610526565b90506060610167610162856103cb565b610597565b9050606061017c610177866103cb565b610597565b9050606061019161018c876103cb565b610597565b9050815183511415806101a657508051835114155b156101ba576000965050505050505061034a565b6000835190506060816040519080825280602002602001820160405280156101f15781602001602082028038833980820191505090505b5090506060826040519080825280602002602001820160405280156102255781602001602082028038833980820191505090505b5090506060836040519080825280602002602001820160405280156102595781602001602082028038833980820191505090505b50905060008090505b8481101561032f5761028688828151811061027957fe5b6020026020010151610526565b84828151811061029257fe5b602002602001019060ff16908160ff16815250506102cc6102c58883815181106102b857fe5b6020026020010151610425565b60006104b1565b8382815181106102d857fe5b60200260200101818152505061030a6103038783815181106102f657fe5b6020026020010151610425565b60006104b1565b82828151811061031657fe5b6020026020010181815250508080600101915050610262565b5061033d8989858585610674565b9a50505050505050505050505b919050565b610357610bab565b600060208301905060405180604001604052808451815260200182815250915050919050565b610385610b8b565b61038e826108fa565b61039757600080fd5b60006103a68360200151610948565b8360200151019050604051806040016040528084815260200182815250915050919050565b6103d3610bab565b6103dc826109d1565b6103e557600080fd5b60008260200151905060006103f9826109fb565b905080820184602001818152505060405180604001604052808281526020018381525092505050919050565b6060600082600001511161043857600080fd5b60006104478360200151610948565b905060008184600001510390506060816040519080825280601f01601f1916602001820160405280156104895781602001600182028038833980820191505090505b50905060008160200190506104a5848760200151018285610ab3565b81945050505050919050565b60008060008090505b602081101561051b576008810260ff60f81b86838701815181106104da57fe5b602001015160f81c60f81b167effffffffffffffffffffffffffffffffffffffffffffffffffffffffffffff1916901c8217915080806001019150506104ba565b508091505092915050565b600080826000015111801561054057506021826000015111155b61054957600080fd5b60006105588360200151610948565b9050600081846000015103905060008083866020015101905080519150602083101561058b57826020036101000a820491505b81945050505050919050565b60606105a2826108fa565b6105ab57600080fd5b60006105b683610b1a565b90506060816040519080825280602002602001820160405280156105f457816020015b6105e1610bc5565b8152602001906001900390816105d95790505b50905060006106068560200151610948565b8560200151019050600080600090505b8481101561066757610627836109fb565b915060405180604001604052808381526020018481525084828151811061064a57fe5b602002602001018190525081830192508080600101915050610616565b5082945050505050919050565b60008251845114158061068957508151845114155b1561069757600090506108f1565b6000601960f81b600060f81b73ef79475013f154e6a65b54cb2742867791bf0b84888a60405160200180867effffffffffffffffffffffffffffffffffffffffffffffffffffffffffffff19167effffffffffffffffffffffffffffffffffffffffffffffffffffffffffffff19168152600101857effffffffffffffffffffffffffffffffffffffffffffffffffffffffffffff19167effffffffffffffffffffffffffffffffffffffffffffffffffffffffffffff191681526001018473ffffffffffffffffffffffffffffffffffffffff1673ffffffffffffffffffffffffffffffffffffffff1660601b81526014018367ffffffffffffffff1667ffffffffffffffff1660c01b81526008018281526020019550505050505060405160208183030381529060405280519060200120905060008090505b85518110156108ea5760006001838884815181106107ec57fe5b602002602001015188858151811061080057fe5b602002602001015188868151811061081457fe5b602002602001015160405160008152602001604052604051808581526020018460ff1660ff1681526020018381526020018281526020019450505050506020604051602081039080840390855afa158015610873573d6000803e3d6000fd5b505050602060405103519050600560008273ffffffffffffffffffffffffffffffffffffffff1673ffffffffffffffffffffffffffffffffffffffff16815260200190815260200160002060009054906101000a900460ff166108dc57600093505050506108f1565b5080806001019150506107d2565b5060019150505b95945050505050565b600080826000015114156109115760009050610943565b60008083602001519050805160001a915060c060ff168260ff16101561093c57600092505050610943565b6001925050505b919050565b600080825160001a9050608060ff168110156109685760009150506109cc565b60b860ff1681108061098d575060c060ff16811015801561098c575060f860ff1681105b5b1561099c5760019150506109cc565b60c060ff168110156109bc5760018060b80360ff168203019150506109cc565b60018060f80360ff168203019150505b919050565b60006109db610bab565b826000015190508060000151816020015101836020015110915050919050565b6000806000835160001a9050608060ff16811015610a1c5760019150610aa9565b60b860ff16811015610a39576001608060ff168203019150610aa8565b60c060ff16811015610a695760b78103600185019450806020036101000a85510460018201810193505050610aa7565b60f860ff16811015610a8657600160c060ff168203019150610aa6565b60f78103600185019450806020036101000a855104600182018101935050505b5b5b5b8192505050919050565b6000811415610ac157610b15565b5b602060ff168110610af15782518252602060ff1683019250602060ff1682019150602060ff1681039050610ac2565b6000600182602060ff16036101000a03905080198451168184511681811785525050505b505050565b60008082600001511415610b315760009050610b86565b60008090506000610b458460200151610948565b84602001510190506000846000015185602001510190505b80821015610b7f57610b6e826109fb565b820191508280600101935050610b5d565b8293505050505b919050565b6040518060400160405280610b9e610bc5565b8152602001600081525090565b604051806040016040528060008152602001600081525090565b60405180604001604052806000815260200160008152509056fea265627a7a72315820c4466aa9e0a9c1bd24aeb28c0c53170ade48a20cb70709282259b231153b5c2a64736f6c634300050e0032","compiler":{"name":"solc","version":"0.5.14+commit.01f1aaa4.Emscripten.clang"},"compileTime":1578366752633}