{"contractName":"EthNtyRelayStorage","abi":[{"inputs":[],"payable":false,"stateMutability":"nonpayable","type":"constructor"},{"constant":true,"inputs":[{"internalType":"uint256","name":"","type":"uint256"}],"name":"blockExisting","outputs":[{"internalType":"bool","name":"","type":"bool"}],"payable":false,"stateMutability":"view","type":"function"},{"constant":true,"inputs":[],"name":"blockHeightMax","outputs":[{"internalType":"uint256","name":"","type":"uint256"}],"payable":false,"stateMutability":"view","type":"function"},{"constant":true,"inputs":[{"internalType":"uint256","name":"","type":"uint256"}],"name":"blocks","outputs":[{"internalType":"uint256","name":"parentHash","type":"uint256"},{"internalType":"uint256","name":"stateRoot","type":"uint256"},{"internalType":"uint256","name":"txRoot","type":"uint256"},{"internalType":"uint256","name":"receiptsRoot","type":"uint256"},{"internalType":"uint256","name":"number","type":"uint256"},{"internalType":"uint256","name":"difficulty","type":"uint256"},{"internalType":"uint256","name":"totalDifficulty","type":"uint256"},{"internalType":"uint256","name":"time","type":"uint256"},{"internalType":"uint256","name":"hash","type":"uint256"}],"payable":false,"stateMutability":"view","type":"function"},{"constant":true,"inputs":[{"internalType":"uint256","name":"","type":"uint256"}],"name":"finalizedBlocks","outputs":[{"internalType":"bool","name":"","type":"bool"}],"payable":false,"stateMutability":"view","type":"function"},{"constant":true,"inputs":[],"name":"firstBlock","outputs":[{"internalType":"uint256","name":"","type":"uint256"}],"payable":false,"stateMutability":"view","type":"function"},{"constant":true,"inputs":[],"name":"longestChainHead","outputs":[{"internalType":"uint256","name":"","type":"uint256"}],"payable":false,"stateMutability":"view","type":"function"},{"constant":true,"inputs":[{"internalType":"uint256","name":"","type":"uint256"}],"name":"verifiedBlocks","outputs":[{"internalType":"bool","name":"","type":"bool"}],"payable":false,"stateMutability":"view","type":"function"}],"bytecode":"0x608060405234801561001057600080fd5b5061031d806100206000396000f3fe608060405234801561001057600080fd5b506004361061007d5760003560e01c8063a8b00a341161005b578063a8b00a3414610104578063b1d3e1591461014a578063d072e8d714610190578063f25b3f99146101ae5761007d565b806304adf69f14610082578063231b0268146100a057806341e63749146100be575b600080fd5b61008a610228565b6040518082815260200191505060405180910390f35b6100a861022e565b6040518082815260200191505060405180910390f35b6100ea600480360360208110156100d457600080fd5b8101908080359060200190929190505050610234565b604051808215151515815260200191505060405180910390f35b6101306004803603602081101561011a57600080fd5b8101908080359060200190929190505050610254565b604051808215151515815260200191505060405180910390f35b6101766004803603602081101561016057600080fd5b8101908080359060200190929190505050610274565b604051808215151515815260200191505060405180910390f35b610198610294565b6040518082815260200191505060405180910390f35b6101da600480360360208110156101c457600080fd5b810190808035906020019092919050505061029a565b604051808a8152602001898152602001888152602001878152602001868152602001858152602001848152602001838152602001828152602001995050505050505050505060405180910390f35b60085481565b60005481565b60026020528060005260406000206000915054906101000a900460ff1681565b60046020528060005260406000206000915054906101000a900460ff1681565b60036020528060005260406000206000915054906101000a900460ff1681565b60075481565b6001602052806000526040600020600091509050806000015490806001015490806002015490806003015490806004015490806005015490806006015490806007015490806008015490508956fea265627a7a7231582008a27c35116a6910c5b1da52767b8c8b13aee8513810dc17d27663568018073a64736f6c634300050e0032","compiler":{"name":"solc","version":"0.5.14+commit.01f1aaa4.Emscripten.clang"},"compileTime":1578561131059}