{"contractName":"EthNtyRelayStorage","abi":[{"constant":true,"inputs":[{"internalType":"uint256","name":"","type":"uint256"}],"name":"blocks","outputs":[{"internalType":"uint256","name":"parentHash","type":"uint256"},{"internalType":"uint256","name":"stateRoot","type":"uint256"},{"internalType":"uint256","name":"txRoot","type":"uint256"},{"internalType":"uint256","name":"receiptsRoot","type":"uint256"},{"internalType":"uint256","name":"number","type":"uint256"},{"internalType":"uint256","name":"difficulty","type":"uint256"},{"internalType":"uint256","name":"time","type":"uint256"},{"internalType":"uint256","name":"hash","type":"uint256"},{"internalType":"uint256","name":"linkCheckpoint","type":"uint256"},{"internalType":"uint256","name":"accumulativeDiff","type":"uint256"}],"payable":false,"stateMutability":"view","type":"function"},{"constant":true,"inputs":[],"name":"firstBlock","outputs":[{"internalType":"uint256","name":"","type":"uint256"}],"payable":false,"stateMutability":"view","type":"function"},{"constant":true,"inputs":[{"internalType":"uint256","name":"","type":"uint256"}],"name":"hasBlock","outputs":[{"internalType":"bool","name":"","type":"bool"}],"payable":false,"stateMutability":"view","type":"function"},{"constant":true,"inputs":[{"internalType":"uint256","name":"","type":"uint256"}],"name":"hasBlockHeight","outputs":[{"internalType":"bool","name":"","type":"bool"}],"payable":false,"stateMutability":"view","type":"function"},{"constant":true,"inputs":[{"internalType":"uint256","name":"","type":"uint256"}],"name":"hasCheckpoint","outputs":[{"internalType":"bool","name":"","type":"bool"}],"payable":false,"stateMutability":"view","type":"function"},{"constant":true,"inputs":[{"internalType":"uint256","name":"","type":"uint256"}],"name":"hasCpBlockByHeight","outputs":[{"internalType":"bool","name":"","type":"bool"}],"payable":false,"stateMutability":"view","type":"function"},{"constant":true,"inputs":[{"internalType":"uint256","name":"","type":"uint256"}],"name":"hasFinalizedBlock","outputs":[{"internalType":"bool","name":"","type":"bool"}],"payable":false,"stateMutability":"view","type":"function"},{"constant":true,"inputs":[],"name":"latestCheckpoint","outputs":[{"internalType":"uint256","name":"","type":"uint256"}],"payable":false,"stateMutability":"view","type":"function"},{"constant":true,"inputs":[{"internalType":"uint256","name":"","type":"uint256"}],"name":"longestBranchHead","outputs":[{"internalType":"uint256","name":"","type":"uint256"}],"payable":false,"stateMutability":"view","type":"function"},{"constant":true,"inputs":[],"name":"maxBlockHeight","outputs":[{"internalType":"uint256","name":"","type":"uint256"}],"payable":false,"stateMutability":"view","type":"function"}],"bytecode":"0x608060405234801561001057600080fd5b50610471806100206000396000f3fe608060405234801561001057600080fd5b506004361061009e5760003560e01c806392947cc01161006657806392947cc0146101b1578063b980e348146101f3578063ed9a37eb14610239578063f25b3f9914610257578063fc32c0d8146102d85761009e565b8063089a22d9146100a3578063231b0268146100e95780638476c278146101075780638d6e193e1461014d578063907c0f9214610193575b600080fd5b6100cf600480360360208110156100b957600080fd5b810190808035906020019092919050505061031e565b604051808215151515815260200191505060405180910390f35b6100f161033e565b6040518082815260200191505060405180910390f35b6101336004803603602081101561011d57600080fd5b8101908080359060200190929190505050610344565b604051808215151515815260200191505060405180910390f35b6101796004803603602081101561016357600080fd5b8101908080359060200190929190505050610364565b604051808215151515815260200191505060405180910390f35b61019b610384565b6040518082815260200191505060405180910390f35b6101dd600480360360208110156101c757600080fd5b810190808035906020019092919050505061038a565b6040518082815260200191505060405180910390f35b61021f6004803603602081101561020957600080fd5b81019080803590602001909291905050506103a2565b604051808215151515815260200191505060405180910390f35b6102416103c2565b6040518082815260200191505060405180910390f35b6102836004803603602081101561026d57600080fd5b81019080803590602001909291905050506103c8565b604051808b81526020018a81526020018981526020018881526020018781526020018681526020018581526020018481526020018381526020018281526020019a505050505050505050505060405180910390f35b610304600480360360208110156102ee57600080fd5b810190808035906020019092919050505061041c565b604051808215151515815260200191505060405180910390f35b60056020528060005260406000206000915054906101000a900460ff1681565b60005481565b60086020528060005260406000206000915054906101000a900460ff1681565b60036020528060005260406000206000915054906101000a900460ff1681565b600a5481565b60076020528060005260406000206000915090505481565b60096020528060005260406000206000915054906101000a900460ff1681565b60065481565b6001602052806000526040600020600091509050806000015490806001015490806002015490806003015490806004015490806005015490806006015490806007015490806008015490806009015490508a565b60026020528060005260406000206000915054906101000a900460ff168156fea265627a7a72315820426447ee5ff122b99796a4dd03156d7ee9e9df494498503e6243fc4eaa21442164736f6c634300050e0032","compiler":{"name":"solc","version":"0.5.14+commit.01f1aaa4.Emscripten.clang"},"compileTime":1581071686285}