{"contractName":"EthNtyRelayStorage","abi":[{"inputs":[],"payable":false,"stateMutability":"nonpayable","type":"constructor"},{"constant":true,"inputs":[{"internalType":"uint256","name":"","type":"uint256"}],"name":"blockExisting","outputs":[{"internalType":"bool","name":"","type":"bool"}],"payable":false,"stateMutability":"view","type":"function"},{"constant":true,"inputs":[],"name":"blockHeightMax","outputs":[{"internalType":"uint256","name":"","type":"uint256"}],"payable":false,"stateMutability":"view","type":"function"},{"constant":true,"inputs":[{"internalType":"uint256","name":"","type":"uint256"}],"name":"blocks","outputs":[{"internalType":"uint256","name":"parentHash","type":"uint256"},{"internalType":"uint256","name":"stateRoot","type":"uint256"},{"internalType":"uint256","name":"txRoot","type":"uint256"},{"internalType":"uint256","name":"receiptsRoot","type":"uint256"},{"internalType":"uint256","name":"number","type":"uint256"},{"internalType":"uint256","name":"difficulty","type":"uint256"},{"internalType":"uint256","name":"time","type":"uint256"},{"internalType":"uint256","name":"hash","type":"uint256"},{"internalType":"uint256","name":"linkCheckpoint","type":"uint256"},{"internalType":"uint256","name":"accumulativeDiff","type":"uint256"}],"payable":false,"stateMutability":"view","type":"function"},{"constant":true,"inputs":[{"internalType":"uint256","name":"","type":"uint256"}],"name":"finalizedBlocks","outputs":[{"internalType":"bool","name":"","type":"bool"}],"payable":false,"stateMutability":"view","type":"function"},{"constant":true,"inputs":[],"name":"firstBlock","outputs":[{"internalType":"uint256","name":"","type":"uint256"}],"payable":false,"stateMutability":"view","type":"function"},{"constant":true,"inputs":[],"name":"latestCheckpoint","outputs":[{"internalType":"uint256","name":"","type":"uint256"}],"payable":false,"stateMutability":"view","type":"function"},{"constant":true,"inputs":[{"internalType":"uint256","name":"","type":"uint256"}],"name":"longestBranchHead","outputs":[{"internalType":"uint256","name":"","type":"uint256"}],"payable":false,"stateMutability":"view","type":"function"},{"constant":true,"inputs":[{"internalType":"uint256","name":"","type":"uint256"}],"name":"verifiedBlocks","outputs":[{"internalType":"bool","name":"","type":"bool"}],"payable":false,"stateMutability":"view","type":"function"}],"bytecode":"0x608060405234801561001057600080fd5b5061038f806100206000396000f3fe608060405234801561001057600080fd5b50600436106100885760003560e01c8063a8b00a341161005b578063a8b00a3414610151578063b1d3e15914610197578063d072e8d7146101dd578063f25b3f99146101fb57610088565b8063231b02681461008d57806341e63749146100ab578063907c0f92146100f157806392947cc01461010f575b600080fd5b61009561027c565b6040518082815260200191505060405180910390f35b6100d7600480360360208110156100c157600080fd5b8101908080359060200190929190505050610282565b604051808215151515815260200191505060405180910390f35b6100f96102a2565b6040518082815260200191505060405180910390f35b61013b6004803603602081101561012557600080fd5b81019080803590602001909291905050506102a8565b6040518082815260200191505060405180910390f35b61017d6004803603602081101561016757600080fd5b81019080803590602001909291905050506102c0565b604051808215151515815260200191505060405180910390f35b6101c3600480360360208110156101ad57600080fd5b81019080803590602001909291905050506102e0565b604051808215151515815260200191505060405180910390f35b6101e5610300565b6040518082815260200191505060405180910390f35b6102276004803603602081101561021157600080fd5b8101908080359060200190929190505050610306565b604051808b81526020018a81526020018981526020018881526020018781526020018681526020018581526020018481526020018381526020018281526020019a505050505050505050505060405180910390f35b60005481565b60026020528060005260406000206000915054906101000a900460ff1681565b600b5481565b60086020528060005260406000206000915090505481565b60046020528060005260406000206000915054906101000a900460ff1681565b60036020528060005260406000206000915054906101000a900460ff1681565b60075481565b6001602052806000526040600020600091509050806000015490806001015490806002015490806003015490806004015490806005015490806006015490806007015490806008015490806009015490508a56fea265627a7a72315820139dfeb0ecf6b889e8245ad3811a889d126700f9b33792934879204dcce3ab9864736f6c634300050e0032","compiler":{"name":"solc","version":"0.5.14+commit.01f1aaa4.Emscripten.clang"},"compileTime":1578907462351}