{"contractName":"MainNtyRelay","abi":[{"inputs":[],"payable":false,"stateMutability":"nonpayable","type":"constructor"},{"anonymous":false,"inputs":[{"indexed":true,"internalType":"address","name":"previousOwner","type":"address"},{"indexed":true,"internalType":"address","name":"newOwner","type":"address"}],"name":"OwnershipTransferred","type":"event"},{"constant":true,"inputs":[{"internalType":"uint256","name":"","type":"uint256"}],"name":"blockExisting","outputs":[{"internalType":"bool","name":"","type":"bool"}],"payable":false,"stateMutability":"view","type":"function"},{"constant":true,"inputs":[],"name":"blockHeightMax","outputs":[{"internalType":"uint256","name":"","type":"uint256"}],"payable":false,"stateMutability":"view","type":"function"},{"constant":true,"inputs":[{"internalType":"uint256","name":"","type":"uint256"}],"name":"blocks","outputs":[{"internalType":"uint256","name":"parentHash","type":"uint256"},{"internalType":"uint256","name":"stateRoot","type":"uint256"},{"internalType":"uint256","name":"txRoot","type":"uint256"},{"internalType":"uint256","name":"receiptsRoot","type":"uint256"},{"internalType":"uint256","name":"number","type":"uint256"},{"internalType":"uint256","name":"difficulty","type":"uint256"},{"internalType":"uint256","name":"time","type":"uint256"},{"internalType":"uint256","name":"hash","type":"uint256"},{"internalType":"uint256","name":"linkCheckpoint","type":"uint256"},{"internalType":"uint256","name":"accumulativeDiff","type":"uint256"}],"payable":false,"stateMutability":"view","type":"function"},{"constant":true,"inputs":[],"name":"checkpointContractInfo","outputs":[{"internalType":"address","name":"contractAddress","type":"address"}],"payable":false,"stateMutability":"view","type":"function"},{"constant":true,"inputs":[],"name":"finalityConfirms","outputs":[{"internalType":"uint256","name":"","type":"uint256"}],"payable":false,"stateMutability":"view","type":"function"},{"constant":false,"inputs":[{"internalType":"uint256","name":"_blockHeaderHash","type":"uint256"}],"name":"finalizeBlock","outputs":[{"internalType":"bool","name":"","type":"bool"}],"payable":false,"stateMutability":"nonpayable","type":"function"},{"constant":true,"inputs":[{"internalType":"uint256","name":"","type":"uint256"}],"name":"finalizedBlocks","outputs":[{"internalType":"bool","name":"","type":"bool"}],"payable":false,"stateMutability":"view","type":"function"},{"constant":true,"inputs":[],"name":"firstBlock","outputs":[{"internalType":"uint256","name":"","type":"uint256"}],"payable":false,"stateMutability":"view","type":"function"},{"constant":true,"inputs":[],"name":"isOwner","outputs":[{"internalType":"bool","name":"","type":"bool"}],"payable":false,"stateMutability":"view","type":"function"},{"constant":true,"inputs":[],"name":"latestCheckpoint","outputs":[{"internalType":"uint256","name":"","type":"uint256"}],"payable":false,"stateMutability":"view","type":"function"},{"constant":true,"inputs":[{"internalType":"uint256","name":"","type":"uint256"}],"name":"longestBranchHead","outputs":[{"internalType":"uint256","name":"","type":"uint256"}],"payable":false,"stateMutability":"view","type":"function"},{"constant":true,"inputs":[],"name":"owner","outputs":[{"internalType":"address","name":"","type":"address"}],"payable":false,"stateMutability":"view","type":"function"},{"constant":false,"inputs":[{"internalType":"bytes","name":"_rlpHeader","type":"bytes"}],"name":"relayBlock","outputs":[{"internalType":"bool","name":"","type":"bool"}],"payable":true,"stateMutability":"payable","type":"function"},{"constant":false,"inputs":[{"internalType":"bytes","name":"_rlpHeader","type":"bytes"},{"internalType":"bytes","name":"_rlpSetCheckpointTx","type":"bytes"},{"internalType":"bytes","name":"_rlpSetCheckpointTxIndex","type":"bytes"},{"internalType":"bytes","name":"_rlpSetCheckpointTxProof","type":"bytes"}],"name":"relayCheckpointBlock","outputs":[{"internalType":"bool","name":"","type":"bool"}],"payable":true,"stateMutability":"payable","type":"function"},{"constant":false,"inputs":[],"name":"renounceOwnership","outputs":[],"payable":false,"stateMutability":"nonpayable","type":"function"},{"constant":false,"inputs":[{"internalType":"uint256","name":"_finalityConfirms","type":"uint256"}],"name":"setFinalityConfirms","outputs":[{"internalType":"bool","name":"","type":"bool"}],"payable":false,"stateMutability":"nonpayable","type":"function"},{"constant":false,"inputs":[{"internalType":"address","name":"newOwner","type":"address"}],"name":"transferOwnership","outputs":[],"payable":false,"stateMutability":"nonpayable","type":"function"},{"constant":true,"inputs":[{"internalType":"uint256","name":"","type":"uint256"}],"name":"verifiedBlocks","outputs":[{"internalType":"bool","name":"","type":"bool"}],"payable":false,"stateMutability":"view","type":"function"},{"constant":true,"inputs":[{"internalType":"bytes","name":"_rlpTx","type":"bytes"},{"internalType":"bytes","name":"_rlpPath","type":"bytes"},{"internalType":"bytes","name":"_rlpParentNodes","type":"bytes"},{"internalType":"uint256","name":"_blockHash","type":"uint256"}],"name":"verifyTx","outputs":[{"internalType":"bool","name":"","type":"bool"}],"payable":false,"stateMutability":"view","type":"function"},{"constant":true,"inputs":[],"name":"version","outputs":[{"internalType":"string","name":"","type":"string"}],"payable":false,"stateMutability":"view","type":"function"}],"bytecode":"0x60806040523480156200001157600080fd5b50620000226200010d60201b60201c565b600c60006101000a81548173ffffffffffffffffffffffffffffffffffffffff021916908373ffffffffffffffffffffffffffffffffffffffff160217905550600c60009054906101000a900473ffffffffffffffffffffffffffffffffffffffff1673ffffffffffffffffffffffffffffffffffffffff16600073ffffffffffffffffffffffffffffffffffffffff167f8be0079c531659141344cd1fd0a4f28419497f9722a3daafe3b4186f6b6457e060405160405180910390a3600d600f81905550620000f76200011560201b60201c565b620001076200035b60201b60201c565b62000784565b600033905090565b6200011f62000731565b6200012f620005e060201b60201c565b90508060e0015160008190555080600160008360e001518152602001908152602001600020600082015181600001556020820151816001015560408201518160020155606082015181600301556080820151816004015560a0820151816005015560c0820151816006015560e08201518160070155610100820151816008015561012082015181600901559050506001600260008360e00151815260200190815260200160002060006101000a81548160ff0219169083151502179055506001600360008360e00151815260200190815260200160002060006101000a81548160ff0219169083151502179055506001600460008360e00151815260200190815260200160002060006101000a81548160ff02191690831515021790555060056000826080015181526020019081526020016000208160e0015190806001815401808255809150509060018203906000526020600020016000909192909190915055506001600660008360800151815260200190815260200160002060006101000a81548160ff02191690831515021790555080608001516007819055508060e00151600860008360e001518152602001908152602001600020819055506001600960008360e00151815260200190815260200160002060006101000a81548160ff0219169083151502179055506001600a60008360800151815260200190815260200160002060006101000a81548160ff0219169083151502179055508060e00151600b8190555050565b739a9070028361f7aabeb3f2f2dc07f82c4a98a02a600d60000160006101000a81548173ffffffffffffffffffffffffffffffffffffffff021916908373ffffffffffffffffffffffffffffffffffffffff1602179055506001600d6001016000731b2c260efc720be89101890e4db589b44e95052773ffffffffffffffffffffffffffffffffffffffff1673ffffffffffffffffffffffffffffffffffffffff16815260200190815260200160002060006101000a81548160ff0219169083151502179055506001600d60010160007378d1ad571a1a09d60d9bbf25894b44e4c885959573ffffffffffffffffffffffffffffffffffffffff1673ffffffffffffffffffffffffffffffffffffffff16815260200190815260200160002060006101000a81548160ff0219169083151502179055506001600d600101600073286834935f4a8cfb4ff4c77d5770c2775ae2b0e773ffffffffffffffffffffffffffffffffffffffff1673ffffffffffffffffffffffffffffffffffffffff16815260200190815260200160002060006101000a81548160ff0219169083151502179055506001600d600101600073b86e2b0ab5a4b1373e40c51a7c712c70ba2f9f8e73ffffffffffffffffffffffffffffffffffffffff1673ffffffffffffffffffffffffffffffffffffffff16815260200190815260200160002060006101000a81548160ff0219169083151502179055506001600d600101600073b86e2b0ab5a4b1373e40c51a7c712c70ba2f9f8e73ffffffffffffffffffffffffffffffffffffffff1673ffffffffffffffffffffffffffffffffffffffff16815260200190815260200160002060006101000a81548160ff021916908315150217905550565b620005ea62000731565b620005f462000731565b6040518061014001604052807f637ebdba5b5ee086732e52b746d893a952adfc82994d8ada987d5f77096d435581526020017fea1ae5cef6eeb461c47474b0aa4a17160f8aae203c389b7d3dde6ebb56a746a081526020017fdc199152db6ae292b83f8c1bf11c068e415b9d5f96980e7c1decb1420068b07881526020017fedc79dd361388db3ac716b3dfd7228b58c8aad5f440cb1a57fe17645b925d4578152602001628a61d7815260200166091b1db69ec78c8152602001635dec439581526020017f420590e149a2f90746dc51e45cd77992e15e9abc7a9a2279472467185a92f85881526020017f420590e149a2f90746dc51e45cd77992e15e9abc7a9a2279472467185a92f85881526020017feeeeeeeeeeeeeeeeeeeeeeeeeeeeeeeeeeeeeeeeeeeeeeeeeeeeeeeeef7950c581525090508091505090565b604051806101400160405280600081526020016000815260200160008152602001600081526020016000815260200160008152602001600081526020016000815260200160008152602001600081525090565b6146a580620007946000396000f3fe60806040526004361061011f5760003560e01c80638da5cb5b116100a0578063b1d3e15911610064578063b1d3e15914610a1c578063c4dd6d0314610a6f578063d072e8d714610a9a578063f25b3f9914610ac5578063f2fde38b14610b535761011f565b80638da5cb5b146108c95780638f32d59b14610920578063907c0f921461094f57806392947cc01461097a578063a8b00a34146109c95761011f565b80634b804d7f116100e75780634b804d7f146106a55780634d2a9777146106fc5780634f4dfcfd1461074f57806354fd4d5014610822578063715018a6146108b25761011f565b8063020d15f714610124578063114c11371461033c578063231b02681461038f57806326ddabe7146103ba57806341e6374914610652575b600080fd5b34801561013057600080fd5b506103226004803603608081101561014757600080fd5b810190808035906020019064010000000081111561016457600080fd5b82018360208201111561017657600080fd5b8035906020019184600183028401116401000000008311171561019857600080fd5b91908080601f016020809104026020016040519081016040528093929190818152602001838380828437600081840152601f19601f820116905080830192505050505050509192919290803590602001906401000000008111156101fb57600080fd5b82018360208201111561020d57600080fd5b8035906020019184600183028401116401000000008311171561022f57600080fd5b91908080601f016020809104026020016040519081016040528093929190818152602001838380828437600081840152601f19601f8201169050808301925050505050505091929192908035906020019064010000000081111561029257600080fd5b8201836020820111156102a457600080fd5b803590602001918460018302840111640100000000831117156102c657600080fd5b91908080601f016020809104026020016040519081016040528093929190818152602001838380828437600081840152601f19601f82011690508083019250505050505050919291929080359060200190929190505050610ba4565b604051808215151515815260200191505060405180910390f35b34801561034857600080fd5b506103756004803603602081101561035f57600080fd5b8101908080359060200190929190505050610c04565b604051808215151515815260200191505060405180910390f35b34801561039b57600080fd5b506103a461125b565b6040518082815260200191505060405180910390f35b610638600480360360808110156103d057600080fd5b81019080803590602001906401000000008111156103ed57600080fd5b8201836020820111156103ff57600080fd5b8035906020019184600183028401116401000000008311171561042157600080fd5b91908080601f016020809104026020016040519081016040528093929190818152602001838380828437600081840152601f19601f8201169050808301925050505050505091929192908035906020019064010000000081111561048457600080fd5b82018360208201111561049657600080fd5b803590602001918460018302840111640100000000831117156104b857600080fd5b91908080601f016020809104026020016040519081016040528093929190818152602001838380828437600081840152601f19601f8201169050808301925050505050505091929192908035906020019064010000000081111561051b57600080fd5b82018360208201111561052d57600080fd5b8035906020019184600183028401116401000000008311171561054f57600080fd5b91908080601f016020809104026020016040519081016040528093929190818152602001838380828437600081840152601f19601f820116905080830192505050505050509192919290803590602001906401000000008111156105b257600080fd5b8201836020820111156105c457600080fd5b803590602001918460018302840111640100000000831117156105e657600080fd5b91908080601f016020809104026020016040519081016040528093929190818152602001838380828437600081840152601f19601f820116905080830192505050505050509192919290505050611261565b604051808215151515815260200191505060405180910390f35b34801561065e57600080fd5b5061068b6004803603602081101561067557600080fd5b810190808035906020019092919050505061188e565b604051808215151515815260200191505060405180910390f35b3480156106b157600080fd5b506106ba6118ae565b604051808273ffffffffffffffffffffffffffffffffffffffff1673ffffffffffffffffffffffffffffffffffffffff16815260200191505060405180910390f35b34801561070857600080fd5b506107356004803603602081101561071f57600080fd5b81019080803590602001909291905050506118da565b604051808215151515815260200191505060405180910390f35b6108086004803603602081101561076557600080fd5b810190808035906020019064010000000081111561078257600080fd5b82018360208201111561079457600080fd5b803590602001918460018302840111640100000000831117156107b657600080fd5b91908080601f016020809104026020016040519081016040528093929190818152602001838380828437600081840152601f19601f8201169050808301925050505050505091929192905050506119c9565b604051808215151515815260200191505060405180910390f35b34801561082e57600080fd5b50610837611f85565b6040518080602001828103825283818151815260200191508051906020019080838360005b8381101561087757808201518184015260208101905061085c565b50505050905090810190601f1680156108a45780820380516001836020036101000a031916815260200191505b509250505060405180910390f35b3480156108be57600080fd5b506108c7611fbe565b005b3480156108d557600080fd5b506108de6120f9565b604051808273ffffffffffffffffffffffffffffffffffffffff1673ffffffffffffffffffffffffffffffffffffffff16815260200191505060405180910390f35b34801561092c57600080fd5b50610935612123565b604051808215151515815260200191505060405180910390f35b34801561095b57600080fd5b50610964612182565b6040518082815260200191505060405180910390f35b34801561098657600080fd5b506109b36004803603602081101561099d57600080fd5b8101908080359060200190929190505050612188565b6040518082815260200191505060405180910390f35b3480156109d557600080fd5b50610a02600480360360208110156109ec57600080fd5b81019080803590602001909291905050506121a0565b604051808215151515815260200191505060405180910390f35b348015610a2857600080fd5b50610a5560048036036020811015610a3f57600080fd5b81019080803590602001909291905050506121c0565b604051808215151515815260200191505060405180910390f35b348015610a7b57600080fd5b50610a846121e0565b6040518082815260200191505060405180910390f35b348015610aa657600080fd5b50610aaf6121e6565b6040518082815260200191505060405180910390f35b348015610ad157600080fd5b50610afe60048036036020811015610ae857600080fd5b81019080803590602001909291905050506121ec565b604051808b81526020018a81526020018981526020018881526020018781526020018681526020018581526020018481526020018381526020018281526020019a505050505050505050505060405180910390f35b348015610b5f57600080fd5b50610ba260048036036020811015610b7657600080fd5b81019080803573ffffffffffffffffffffffffffffffffffffffff169060200190929190505050612240565b005b60006002600083815260200190815260200160002060009054906101000a900460ff16610bd45760009050610bfc565b610bf9858585600160008781526020019081526020016000206002015460001b6122c6565b90505b949350505050565b60006002600083815260200190815260200160002060009054906101000a900460ff16610c7c576040517f08c379a000000000000000000000000000000000000000000000000000000000815260040180806020018281038252602c81526020018061446b602c913960400191505060405180910390fd5b6004600083815260200190815260200160002060009054906101000a900460ff1615610cf3576040517f08c379a000000000000000000000000000000000000000000000000000000000815260040180806020018281038252602e81526020018061450f602e913960400191505060405180910390fd5b610cfb61419b565b6001600084815260200190815260200160002060405180610140016040529081600082015481526020016001820154815260200160028201548152602001600382015481526020016004820154815260200160058201548152602001600682015481526020016007820154815260200160088201548152602001600982015481525050905060006008600083610100015181526020019081526020016000205490508160800151600160008381526020019081526020016000206004015411610e0f576040517f08c379a000000000000000000000000000000000000000000000000000000000815260040180806020018281038252603b8152602001806144d4603b913960400191505060405180910390fd5b600081905060008090506000600185608001510190505b60016000858152602001908152602001600020600401548111610f5757600a600082815260200190815260200160002060009054906101000a900460ff1615610f4a57606060056000838152602001908152602001600020805480602002602001604051908101604052809291908181526020018280548015610ec857602002820191906000526020600020905b815481526020019060010190808311610eb4575b5050505050905060008090505b8151811015610f435760096000838381518110610eee57fe5b6020026020010151815260200190815260200160002060009054906101000a900460ff1615610f3657818181518110610f2357fe5b6020026020010151945060019350610f43565b8080600101915050610ed5565b5050610f57565b8080600101915050610e26565b50600084608001516001600085815260200190815260200160002060040154039050600080905060008090506000600160008781526020019081526020016000206007015490505b83821015611086576002600082815260200190815260200160002060009054906101000a900460ff1661101d576040517f08c379a000000000000000000000000000000000000000000000000000000000815260040180806020018281038252603b8152602001806144d4603b913960400191505060405180910390fd5b8215801561104857506004600082815260200190815260200160002060009054906101000a900460ff165b1561105257600192505b6001600082815260200190815260200160002060000154905061107f60018361259690919063ffffffff16565b9150610f9f565b89811480156110a7575084806110995750825b806110a65750600f548410155b5b6110fc576040517f08c379a000000000000000000000000000000000000000000000000000000000815260040180806020018281038252602f81526020018061443c602f913960400191505060405180910390fd5b6001600460008c815260200190815260200160002060006101000a81548160ff0219169083151502179055506060600560008a60800151815260200190815260200160002080548060200260200160405190810160405280929190818152602001828054801561118b57602002820191906000526020600020905b815481526020019060010190808311611177575b50505050509050600092505b8051831015611249578a8184815181106111ad57fe5b6020026020010151141580156111f35750600460008285815181106111ce57fe5b6020026020010151815260200190815260200160002060009054906101000a900460ff165b1561123c5760006004600083868151811061120a57fe5b6020026020010151815260200190815260200160002060006101000a81548160ff021916908315150217905550611249565b8280600101935050611197565b60019950505050505050505050919050565b60005481565b60008061126d8661261e565b90506009600082815260200190815260200160002060009054906101000a900460ff16156112e6576040517f08c379a00000000000000000000000000000000000000000000000000000000081526004018080602001828103825260358152602001806145626035913960400191505060405180910390fd5b6112ee6141ee565b6112f787612632565b9050600061130488612921565b905060006113288361010001518460e00151856101c00151866101a00151866129f0565b905080611380576040517f08c379a000000000000000000000000000000000000000000000000000000000815260040180806020018281038252602f8152602001806143dd602f913960400191505060405180910390fd5b6000611395898989876080015160001b6122c6565b9050806113ed576040517f08c379a000000000000000000000000000000000000000000000000000000000815260040180806020018281038252603d815260200180614497603d913960400191505060405180910390fd5b6113f561427a565b6113fe8a612ad2565b905061140f8160a00151600d612cce565b611464576040517f08c379a000000000000000000000000000000000000000000000000000000000815260040180806020018281038252602e8152602001806143af602e913960400191505060405180910390fd5b61146c61419b565b6040518061014001604052808760000151815260200187606001518152602001876080015181526020018760a00151815260200187610100015181526020018760e00151815260200187610160015181526020018881526020018881526020016115047feeeeeeeeeeeeeeeeeeeeeeeeeeeeeeeeeeeeeeeeeeeeeeeeeeeeeeeeeeeeeeee89610100015161259690919063ffffffff16565b81525090508060016000898152602001908152602001600020600082015181600001556020820151816001015560408201518160020155606082015181600301556080820151816004015560a0820151816005015560c0820151816006015560e082015181600701556101008201518160080155610120820151816009015590505060016002600089815260200190815260200160002060006101000a81548160ff02191690831515021790555060016003600089815260200190815260200160002060006101000a81548160ff02191690831515021790555060016004600089815260200190815260200160002060006101000a81548160ff02191690831515021790555060016009600089815260200190815260200160002060006101000a81548160ff0219169083151502179055506001600a6000600160008b815260200190815260200160002060040154815260200190815260200160002060006101000a81548160ff02191690831515021790555060016000600b54815260200190815260200160002060040154600160008981526020019081526020016000206004015411156116b65786600b819055505b600560008761010001518152602001908152602001600020879080600181540180825580915050906001820390600052602060002001600090919290919091505550600160066000886101000151815260200190815260200160002060006101000a81548160ff0219169083151502179055506007548661010001511115611745578561010001516007819055505b606060056000600160008b81526020019081526020016000206004015481526020019081526020016000208054806020026020016040519081016040528092919081815260200182805480156117ba57602002820191906000526020600020905b8154815260200190600101908083116117a6575b5050505050905060008090505b815181101561187957888282815181106117dd57fe5b6020026020010151141580156118235750600460008383815181106117fe57fe5b6020026020010151815260200190815260200160002060009054906101000a900460ff165b1561186c5760006004600084848151811061183a57fe5b6020026020010151815260200190815260200160002060006101000a81548160ff021916908315150217905550611879565b80806001019150506117c7565b50600198505050505050505050949350505050565b60026020528060005260406000206000915054906101000a900460ff1681565b600d8060000160009054906101000a900473ffffffffffffffffffffffffffffffffffffffff16905081565b60006118e4612123565b611956576040517f08c379a00000000000000000000000000000000000000000000000000000000081526004018080602001828103825260208152602001807f4f776e61626c653a2063616c6c6572206973206e6f7420746865206f776e657281525060200191505060405180910390fd5b600082116119af576040517f08c379a00000000000000000000000000000000000000000000000000000000081526004018080602001828103825260308152602001806146106030913960400191505060405180910390fd5b600f5482146119c05781600f819055505b60019050919050565b6000806119d58361261e565b90506002600082815260200190815260200160002060009054906101000a900460ff1615611a4e576040517f08c379a00000000000000000000000000000000000000000000000000000000081526004018080602001828103825260298152602001806143606029913960400191505060405180910390fd5b611a566141ee565b611a5f84612632565b9050600260008260000151815260200190815260200160002060009054906101000a900460ff16611adb576040517f08c379a00000000000000000000000000000000000000000000000000000000081526004018080602001828103825260308152602001806145e06030913960400191505060405180910390fd5b611b086001806000846000015181526020019081526020016000206004015461259690919063ffffffff16565b81610100015114611b64576040517f08c379a000000000000000000000000000000000000000000000000000000000815260040180806020018281038252603081526020018061440c6030913960400191505060405180910390fd5b60016000826000015181526020019081526020016000206006015481610160015111611bdb576040517f08c379a000000000000000000000000000000000000000000000000000000000815260040180806020018281038252602581526020018061453d6025913960400191505060405180910390fd5b611c038160e0015160016000846000015181526020019081526020016000206005015461301e565b611c58576040517f08c379a000000000000000000000000000000000000000000000000000000000815260040180806020018281038252602681526020018061433a6026913960400191505060405180910390fd5b6000611c6385612921565b90506000611c878361010001518460e00151856101c00151866101a00151866129f0565b905080611cfc576040517f08c379a000000000000000000000000000000000000000000000000000000000815260040180806020018281038252601f8152602001807f52656c617920626c6f636b206661696c65643a20696e76616c696420506f570081525060200191505060405180910390fd5b611d0461419b565b6040518061014001604052808560000151815260200185606001518152602001856080015181526020018560a00151815260200185610100015181526020018560e00151815260200185610160015181526020018681526020016001600087600001518152602001908152602001600020600801548152602001611daf8660e0015160016000896000015181526020019081526020016000206009015461259690919063ffffffff16565b81525090508060016000878152602001908152602001600020600082015181600001556020820151816001015560408201518160020155606082015181600301556080820151816004015560a0820151816005015560c0820151816006015560e082015181600701556101008201518160080155610120820151816009015590505060016002600087815260200190815260200160002060006101000a81548160ff02191690831515021790555060016003600087815260200190815260200160002060006101000a81548160ff021916908315150217905550600560008561010001518152602001908152602001600020859080600181540180825580915050906001820390600052602060002001600090919290919091505550600160066000866101000151815260200190815260200160002060006101000a81548160ff0219169083151502179055506007548461010001511115611f18578361010001516007819055505b600060086000836101000151815260200190815260200160002054905060016000828152602001908152602001600020600901548261012001511115611f765785600860008461010001518152602001908152602001600020819055505b60019650505050505050919050565b6040518060400160405280600581526020017f312e302e3000000000000000000000000000000000000000000000000000000081525081565b611fc6612123565b612038576040517f08c379a00000000000000000000000000000000000000000000000000000000081526004018080602001828103825260208152602001807f4f776e61626c653a2063616c6c6572206973206e6f7420746865206f776e657281525060200191505060405180910390fd5b600073ffffffffffffffffffffffffffffffffffffffff16600c60009054906101000a900473ffffffffffffffffffffffffffffffffffffffff1673ffffffffffffffffffffffffffffffffffffffff167f8be0079c531659141344cd1fd0a4f28419497f9722a3daafe3b4186f6b6457e060405160405180910390a36000600c60006101000a81548173ffffffffffffffffffffffffffffffffffffffff021916908373ffffffffffffffffffffffffffffffffffffffff160217905550565b6000600c60009054906101000a900473ffffffffffffffffffffffffffffffffffffffff16905090565b6000600c60009054906101000a900473ffffffffffffffffffffffffffffffffffffffff1673ffffffffffffffffffffffffffffffffffffffff1661216661304c565b73ffffffffffffffffffffffffffffffffffffffff1614905090565b600b5481565b60086020528060005260406000206000915090505481565b60046020528060005260406000206000915054906101000a900460ff1681565b60036020528060005260406000206000915054906101000a900460ff1681565b600f5481565b60075481565b6001602052806000526040600020600091509050806000015490806001015490806002015490806003015490806004015490806005015490806006015490806007015490806008015490806009015490508a565b612248612123565b6122ba576040517f08c379a00000000000000000000000000000000000000000000000000000000081526004018080602001828103825260208152602001807f4f776e61626c653a2063616c6c6572206973206e6f7420746865206f776e657281525060200191505060405180910390fd5b6122c381613054565b50565b60006122d06142e5565b6122d98461319a565b905060606122e6826131c8565b90506060806000869050600080905060606123008b6132a5565b905060008151141561231c57600097505050505050505061258e565b60008090505b86518110156125855781518311156123455760009850505050505050505061258e565b61236187828151811061235457fe5b602002602001015161342c565b9550858051906020012084146123825760009850505050505050505061258e565b61239e87828151811061239157fe5b60200260200101516131c8565b9450601185511415612470578151831415612407578c805190602001206123d8866010815181106123cb57fe5b60200260200101516134a2565b8051906020012014156123f65760019850505050505050505061258e565b60009850505050505050505061258e565b600082848151811061241557fe5b602001015160f81c60f81b60f81c905060108160ff161115612443576000995050505050505050505061258e565b612462868260ff168151811061245557fe5b602002602001015161352e565b945060018401935050612578565b600285511415612566576124a161249a8660008151811061248d57fe5b602002602001015161342c565b838561354a565b830192508151831415612502578c805190602001206124d3866001815181106124c657fe5b60200260200101516134a2565b8051906020012014156124f15760019850505050505050505061258e565b60009850505050505050505061258e565b600061252b6125248760008151811061251757fe5b602002602001015161342c565b848661354a565b14156125425760009850505050505050505061258e565b61255f8560018151811061255257fe5b602002602001015161352e565b9350612577565b60009850505050505050505061258e565b5b8080600101915050612322565b50505050505050505b949350505050565b600080828401905083811015612614576040517f08c379a000000000000000000000000000000000000000000000000000000000815260040180806020018281038252601b8152602001807f536166654d6174683a206164646974696f6e206f766572666c6f77000000000081525060200191505060405180910390fd5b8091505092915050565b6000818051906020012060001c9050919050565b61263a6141ee565b6126426142ff565b61265361264e8461319a565b61363d565b905060005b6126618261368b565b1561291757600081141561268e5761268061267b836136b5565b61370f565b83600001818152505061290a565b60018114156126b6576126a86126a3836136b5565b61370f565b836020018181525050612909565b600281141561270c576126d06126cb836136b5565b613780565b836040019073ffffffffffffffffffffffffffffffffffffffff16908173ffffffffffffffffffffffffffffffffffffffff1681525050612908565b600381141561273457612726612721836136b5565b61370f565b836060018181525050612907565b600481141561275c5761274e612749836136b5565b61370f565b836080018181525050612906565b600581141561278457612776612771836136b5565b61370f565b8360a0018181525050612905565b60068114156127ab5761279e612799836136b5565b6134a2565b8360c00181905250612904565b60078114156127d3576127c56127c0836136b5565b61370f565b8360e0018181525050612903565b60088114156127fc576127ed6127e8836136b5565b61370f565b83610100018181525050612902565b600981141561282557612816612811836136b5565b61370f565b83610120018181525050612901565b600a81141561284e5761283f61283a836136b5565b61370f565b83610140018181525050612900565b600b81141561287757612868612863836136b5565b61370f565b836101600181815250506128ff565b600c81141561289f5761289161288c836136b5565b6134a2565b8361018001819052506128fe565b600d8114156128c8576128b96128b4836136b5565b61370f565b836101a00181815250506128fd565b600e8114156128f1576128e26128dd836136b5565b61370f565b836101c00181815250506128fc565b6128fa826136b5565b505b5b5b5b5b5b5b5b5b5b5b5b5b5b5b8080600101915050612658565b8292505050919050565b60006060600d60405190808252806020026020018201604052801561295a57816020015b60608152602001906001900390816129455790505b5090506129656142ff565b6129766129718561319a565b61363d565b905060008090505b6129878261368b565b80156129935750600d81105b156129cd576129a96129a4836136b5565b61342c565b8382815181106129b557fe5b6020026020010181905250808060010191505061297e565b60606129d8846137a3565b9050808051906020012060001c945050505050919050565b6000606086868686866040516020018086815260200185815260200184815260200183815260200182815260200195505050505050604051602081830303815290604052905060008151905060006001905060008090506040516020818560208801600060fe600019f1612a6357600092505b805191505081612abe576040517f08c379a00000000000000000000000000000000000000000000000000000000081526004018080602001828103825260318152602001806146406031913960400191505060405180910390fd5b600081141594505050505095945050505050565b612ada61427a565b612ae26142ff565b612af3612aee8461319a565b61363d565b905060005b612b018261368b565b15612cc4576000811415612b2e57612b20612b1b836136b5565b61370f565b836000018181525050612cb7565b6001811415612b5657612b48612b43836136b5565b61370f565b836020018181525050612cb6565b6002811415612b7e57612b70612b6b836136b5565b61370f565b836040018181525050612cb5565b6003811415612bd457612b98612b93836136b5565b613780565b836060019073ffffffffffffffffffffffffffffffffffffffff16908173ffffffffffffffffffffffffffffffffffffffff1681525050612cb4565b6004811415612bfc57612bee612be9836136b5565b61370f565b836080018181525050612cb3565b6005811415612c2357612c16612c11836136b5565b6134a2565b8360a00181905250612cb2565b6006811415612c5357612c3d612c38836136b5565b61370f565b8360c0019060ff16908160ff1681525050612cb1565b6007811415612c7b57612c6d612c68836136b5565b61352e565b8360e0018181525050612cb0565b6008811415612ca457612c95612c90836136b5565b61352e565b83610100018181525050612caf565b612cad826136b5565b505b5b5b5b5b5b5b5b5b8080600101915050612af8565b8292505050919050565b6000806000806000806060806060612ce58b6137ce565b809850819950829a50839b50849c50859d50869e50879f505050505050505050604051808061459760499139604901905060405180910390207bffffffffffffffffffffffffffffffffffffffffffffffffffffffff1916887bffffffffffffffffffffffffffffffffffffffffffffffffffffffff191614612d7357600098505050505050505050613018565b81518351141580612d8657508051835114155b15612d9c57600098505050505050505050613018565b6000601960f81b600060f81b8c60000160009054906101000a900473ffffffffffffffffffffffffffffffffffffffff16878960405160200180867effffffffffffffffffffffffffffffffffffffffffffffffffffffffffffff19167effffffffffffffffffffffffffffffffffffffffffffffffffffffffffffff19168152600101857effffffffffffffffffffffffffffffffffffffffffffffffffffffffffffff19167effffffffffffffffffffffffffffffffffffffffffffffffffffffffffffff191681526001018473ffffffffffffffffffffffffffffffffffffffff1673ffffffffffffffffffffffffffffffffffffffff1660601b81526014018367ffffffffffffffff1667ffffffffffffffff1660c01b81526008018281526020019550505050505060405160208183030381529060405280519060200120905060008090505b8451811015613009576000600183878481518110612f0157fe5b6020026020010151878581518110612f1557fe5b6020026020010151878681518110612f2957fe5b602002602001015160405160008152602001604052604051808581526020018460ff1660ff1681526020018381526020018281526020019450505050506020604051602081039080840390855afa158015612f88573d6000803e3d6000fd5b5050506020604051035190508c60010160008273ffffffffffffffffffffffffffffffffffffffff1673ffffffffffffffffffffffffffffffffffffffff16815260200190815260200160002060009054906101000a900460ff16612ffb5760009b505050505050505050505050613018565b508080600101915050612ee7565b50600199505050505050505050505b92915050565b60006130416063612710848161303057fe5b04028361396890919063ffffffff16565b831015905092915050565b600033905090565b600073ffffffffffffffffffffffffffffffffffffffff168173ffffffffffffffffffffffffffffffffffffffff1614156130da576040517f08c379a00000000000000000000000000000000000000000000000000000000081526004018080602001828103825260268152602001806143896026913960400191505060405180910390fd5b8073ffffffffffffffffffffffffffffffffffffffff16600c60009054906101000a900473ffffffffffffffffffffffffffffffffffffffff1673ffffffffffffffffffffffffffffffffffffffff167f8be0079c531659141344cd1fd0a4f28419497f9722a3daafe3b4186f6b6457e060405160405180910390a380600c60006101000a81548173ffffffffffffffffffffffffffffffffffffffff021916908373ffffffffffffffffffffffffffffffffffffffff16021790555050565b6131a26142e5565b600060208301905060405180604001604052808451815260200182815250915050919050565b60606131d3826139b2565b6131dc57600080fd5b60006131e783613a00565b905060608160405190808252806020026020018201604052801561322557816020015b61321261431f565b81526020019060019003908161320a5790505b50905060006132378560200151613a71565b8560200151019050600080600090505b848110156132985761325883613afa565b915060405180604001604052808381526020018481525084828151811061327b57fe5b602002602001018190525081830192508080600101915050613247565b5082945050505050919050565b606080600083511115613423576000806132c0600086613bb2565b60f81c905060018160ff1614806132da575060038160ff16145b156133725760016002865102036040519080825280601f01601f1916602001820160405280156133195781602001600182028038833980820191505090505b5092506000613329600187613bb2565b9050808460008151811061333957fe5b60200101907effffffffffffffffffffffffffffffffffffffffffffffffffffffffffffff1916908160001a90535060019250506133b3565b600280865102036040519080825280601f01601f1916602001820160405280156133ab5781602001600182028038833980820191505090505b509250600091505b60008260ff1690505b835181101561341f576133d760028460ff1683030187613bb2565b8482815181106133e357fe5b60200101907effffffffffffffffffffffffffffffffffffffffffffffffffffffffffffff1916908160001a90535080806001019150506133bc565b5050505b80915050919050565b60608082600001516040519080825280601f01601f1916602001820160405280156134665781602001600182028038833980820191505090505b50905060008151141561347c578091505061349d565b60008160200190506134978460200151828660000151613c38565b81925050505b919050565b606060008260000151116134b557600080fd5b60006134c48360200151613a71565b905060008184600001510390506060816040519080825280601f01601f1916602001820160405280156135065781602001600182028038833980820191505090505b5090506000816020019050613522848760200151018285613c38565b81945050505050919050565b600061354361353c836134a2565b6000613c9f565b9050919050565b6000806060613558866132a5565b9050606081516040519080825280601f01601f1916602001820160405280156135905781602001600182028038833980820191505090505b50905060008590505b8251860181101561360b5760008782815181106135b257fe5b602001015160f81c60f81b90508083888403815181106135ce57fe5b60200101907effffffffffffffffffffffffffffffffffffffffffffffffffffffffffffff1916908160001a905350508080600101915050613599565b5080805190602001208280519060200120141561362b5781519250613630565b600092505b8293505050509392505050565b6136456142ff565b61364e826139b2565b61365757600080fd5b60006136668360200151613a71565b8360200151019050604051806040016040528084815260200182815250915050919050565b60006136956142e5565b826000015190508060000151816020015101836020015110915050919050565b6136bd6142e5565b6136c68261368b565b6136cf57600080fd5b60008260200151905060006136e382613afa565b905080820184602001818152505060405180604001604052808281526020018381525092505050919050565b600080826000015111801561372957506021826000015111155b61373257600080fd5b60006137418360200151613a71565b9050600081846000015103905060008083866020015101905080519150602083101561377457826020036101000a820491505b81945050505050919050565b6000601582600001511461379357600080fd5b61379c8261370f565b9050919050565b6060806137af83613d14565b90506137c66137c0825160c0613e42565b82613ff6565b915050919050565b6000806000806000606080606060008060008060008060208f01519d5060248f0180519d5060208101519c5060408101519b5060608101519a506080810151808201519750602081018201945060a08201519050808201519650602081018201935060c0820151905080820151955060208101820192505050856040519080825280602002602001820160405280156138765781602001602082028038833980820191505090505b509850846040519080825280602002602001820160405280156138a85781602001602082028038833980820191505090505b509750836040519080825280602002602001820160405280156138da5781602001602082028038833980820191505090505b50965060005b868110156139045780602002840151816020026020018b01526001810190506138e0565b600090505b8581101561392d5780602002830151816020026020018a0152600181019050613909565b600090505b84811015613956578060200282015181602002602001890152600181019050613932565b50505050505050919395975091939597565b60006139aa83836040518060400160405280601e81526020017f536166654d6174683a207375627472616374696f6e206f766572666c6f770000815250614080565b905092915050565b600080826000015114156139c957600090506139fb565b60008083602001519050805160001a915060c060ff168260ff1610156139f4576000925050506139fb565b6001925050505b919050565b60008082600001511415613a175760009050613a6c565b60008090506000613a2b8460200151613a71565b84602001510190506000846000015185602001510190505b80821015613a6557613a5482613afa565b820191508280600101935050613a43565b8293505050505b919050565b600080825160001a9050608060ff16811015613a91576000915050613af5565b60b860ff16811080613ab6575060c060ff168110158015613ab5575060f860ff1681105b5b15613ac5576001915050613af5565b60c060ff16811015613ae55760018060b80360ff16820301915050613af5565b60018060f80360ff168203019150505b919050565b6000806000835160001a9050608060ff16811015613b1b5760019150613ba8565b60b860ff16811015613b38576001608060ff168203019150613ba7565b60c060ff16811015613b685760b78103600185019450806020036101000a85510460018201810193505050613ba6565b60f860ff16811015613b8557600160c060ff168203019150613ba5565b60f78103600185019450806020036101000a855104600182018101935050505b5b5b5b8192505050919050565b60008060028481613bbf57fe5b0614613bfb5760108260028581613bd257fe5b0481518110613bdd57fe5b602001015160f81c60f81b60f81c60ff1681613bf557fe5b06613c2d565b60108260028581613c0857fe5b0481518110613c1357fe5b602001015160f81c60f81b60f81c60ff1681613c2b57fe5b045b60f81b905092915050565b6000811415613c4657613c9a565b5b602060ff168110613c765782518252602060ff1683019250602060ff1682019150602060ff1681039050613c47565b6000600182602060ff16036101000a03905080198451168184511681811785525050505b505050565b60008060008090505b6020811015613d09576008810260ff60f81b8683870181518110613cc857fe5b602001015160f81c60f81b167effffffffffffffffffffffffffffffffffffffffffffffffffffffffffffff1916901c821791508080600101915050613ca8565b508091505092915050565b6060600082511415613d5c5760006040519080825280601f01601f191660200182016040528015613d545781602001600182028038833980820191505090505b509050613e3d565b600080600090505b8351811015613d9357838181518110613d7957fe5b602002602001015151820191508080600101915050613d64565b6060826040519080825280601f01601f191660200182016040528015613dc85781602001600182028038833980820191505090505b5090506000602082019050600092505b8551831015613e35576060868481518110613def57fe5b602002602001015190506000602082019050613e0d83828451614140565b878581518110613e1957fe5b6020026020010151518301925050508280600101935050613dd8565b819450505050505b919050565b6060806038841015613ecc5760016040519080825280601f01601f191660200182016040528015613e825781602001600182028038833980820191505090505b50905082840160f81b81600081518110613e9857fe5b60200101907effffffffffffffffffffffffffffffffffffffffffffffffffffffffffffff1916908160001a905350613fec565b600080600190505b6000818781613edf57fe5b0414613ef957818060010192505061010081029050613ed4565b600182016040519080825280601f01601f191660200182016040528015613f2f5781602001600182028038833980820191505090505b50925060378583010160f81b83600081518110613f4857fe5b60200101907effffffffffffffffffffffffffffffffffffffffffffffffffffffffffffff1916908160001a905350600190505b818111613fe9576101008183036101000a8781613f9557fe5b0481613f9d57fe5b0660f81b838281518110613fad57fe5b60200101907effffffffffffffffffffffffffffffffffffffffffffffffffffffffffffff1916908160001a9053508080600101915050613f7c565b50505b8091505092915050565b6060806040519050835180825260208201818101602087015b8183101561402c578051835260208301925060208101905061400f565b50855192508351830184528091508282019050602086015b818310156140615780518352602083019250602081019050614044565b50601f19601f8851850115830101166040525050508091505092915050565b600083831115829061412d576040517f08c379a00000000000000000000000000000000000000000000000000000000081526004018080602001828103825283818151815260200191508051906020019080838360005b838110156140f25780820151818401526020810190506140d7565b50505050905090810190601f16801561411f5780820380516001836020036101000a031916815260200191505b509250505060405180910390fd5b5060008385039050809150509392505050565b6000839050600083905060008390505b602081106141735781518352602083019250602082019150602081039050614150565b60006001826020036101000a0390508019835116818551168181178652505050505050505050565b604051806101400160405280600081526020016000815260200160008152602001600081526020016000815260200160008152602001600081526020016000815260200160008152602001600081525090565b604051806101e001604052806000815260200160008152602001600073ffffffffffffffffffffffffffffffffffffffff1681526020016000815260200160008152602001600081526020016060815260200160008152602001600081526020016000815260200160008152602001600081526020016060815260200160008152602001600081525090565b604051806101200160405280600081526020016000815260200160008152602001600073ffffffffffffffffffffffffffffffffffffffff1681526020016000815260200160608152602001600060ff16815260200160008019168152602001600080191681525090565b604051806040016040528060008152602001600081525090565b604051806040016040528061431261431f565b8152602001600081525090565b60405180604001604052806000815260200160008152509056fe52656c617920626c6f636b206661696c65643a20696e76616c696420646966666963756c747952656c617920626c6f636b206661696c65643a20626c6f636b20616c72656164792072656c617965644f776e61626c653a206e6577206f776e657220697320746865207a65726f2061646472657373496e76616c696420536574436865636b706f696e742066756e6374696f6e2063616c6c20696e707574206461746152656c617920626c6f636b206173206120636865636b706f696e74206661696c65643a20696e76616c696420506f5752656c617920626c6f636b206661696c65643a20696e76616c696420626c6f636b20626c6f636b4865696768744d617846696e616c697a6520626c6f636b206661696c65643a206e6f7420656e6f75676820636f6e6669726d6174696f6e7346696e616c697a6520626c6f636b206661696c65643a20626c6f636b206e6f742072656c617965642079657452656c617920626c6f636b206173206120636865636b706f696e74206661696c65643a20756e70726f76656e20536574436865636b706f696e7420547846696e616c697a6520626c6f636b206661696c65643a20626c6f636b206973206e6f742062656c6f6e6720746f206c6f6e6765737420636861696e46696e616c697a6520626c6f636b206661696c65643a20626c6f636b20616c72656164792066696e616c697a656452656c617920626c6f636b206661696c65643a20696e76616c69642074696d657374616d70426c6f636b20686173206265656e20616c72656164792072656c61796564206173206120636865636b706f696e74206265666f7265536574436865636b706f696e742875696e743235362c627974657333322c627974657333322c75696e7436342c75696e74385b5d2c627974657333325b5d2c627974657333325b5d2952656c617920626c6f636b206661696c65643a20706172656e7420626c6f636b206e6f742072656c61796564207965745365742066696e616c69747920636f6e6669726d6174696f6e73206661696c65643a20696e76616c69642076616c75654661696c656420746f2063616c6c207072652d636f6d70696c656420636f6e747261637420766572696679457468617368a265627a7a7231582030d9560e317a4041e587652c2e77891567396930e28de48ee95eec2f9fa9d34e64736f6c634300050e0032","compiler":{"name":"solc","version":"0.5.14+commit.01f1aaa4.Emscripten.clang"},"compileTime":1578907462351}