{"contractName":"MainNtyRelay","abi":[{"inputs":[],"payable":false,"stateMutability":"nonpayable","type":"constructor"},{"anonymous":false,"inputs":[{"indexed":true,"internalType":"address","name":"previousOwner","type":"address"},{"indexed":true,"internalType":"address","name":"newOwner","type":"address"}],"name":"OwnershipTransferred","type":"event"},{"constant":true,"inputs":[{"internalType":"uint256","name":"","type":"uint256"}],"name":"blockExisting","outputs":[{"internalType":"bool","name":"","type":"bool"}],"payable":false,"stateMutability":"view","type":"function"},{"constant":true,"inputs":[],"name":"blockHeightMax","outputs":[{"internalType":"uint256","name":"","type":"uint256"}],"payable":false,"stateMutability":"view","type":"function"},{"constant":true,"inputs":[{"internalType":"uint256","name":"","type":"uint256"}],"name":"blocks","outputs":[{"internalType":"uint256","name":"parentHash","type":"uint256"},{"internalType":"uint256","name":"stateRoot","type":"uint256"},{"internalType":"uint256","name":"txRoot","type":"uint256"},{"internalType":"uint256","name":"receiptsRoot","type":"uint256"},{"internalType":"uint256","name":"number","type":"uint256"},{"internalType":"uint256","name":"difficulty","type":"uint256"},{"internalType":"uint256","name":"totalDifficulty","type":"uint256"},{"internalType":"uint256","name":"time","type":"uint256"},{"internalType":"uint256","name":"hash","type":"uint256"}],"payable":false,"stateMutability":"view","type":"function"},{"constant":true,"inputs":[],"name":"checkpointContractInfo","outputs":[{"internalType":"address","name":"contractAddress","type":"address"}],"payable":false,"stateMutability":"view","type":"function"},{"constant":true,"inputs":[],"name":"finalityConfirms","outputs":[{"internalType":"uint256","name":"","type":"uint256"}],"payable":false,"stateMutability":"view","type":"function"},{"constant":false,"inputs":[{"internalType":"uint256","name":"_blockHeaderHash","type":"uint256"}],"name":"finalizeBlock","outputs":[{"internalType":"bool","name":"","type":"bool"}],"payable":false,"stateMutability":"nonpayable","type":"function"},{"constant":true,"inputs":[{"internalType":"uint256","name":"","type":"uint256"}],"name":"finalizedBlocks","outputs":[{"internalType":"bool","name":"","type":"bool"}],"payable":false,"stateMutability":"view","type":"function"},{"constant":true,"inputs":[],"name":"firstBlock","outputs":[{"internalType":"uint256","name":"","type":"uint256"}],"payable":false,"stateMutability":"view","type":"function"},{"constant":true,"inputs":[],"name":"isOwner","outputs":[{"internalType":"bool","name":"","type":"bool"}],"payable":false,"stateMutability":"view","type":"function"},{"constant":true,"inputs":[],"name":"longestChainHead","outputs":[{"internalType":"uint256","name":"","type":"uint256"}],"payable":false,"stateMutability":"view","type":"function"},{"constant":true,"inputs":[],"name":"owner","outputs":[{"internalType":"address","name":"","type":"address"}],"payable":false,"stateMutability":"view","type":"function"},{"constant":false,"inputs":[{"internalType":"bytes","name":"_rlpHeader","type":"bytes"}],"name":"relayBlock","outputs":[{"internalType":"bool","name":"","type":"bool"}],"payable":true,"stateMutability":"payable","type":"function"},{"constant":false,"inputs":[{"internalType":"bytes","name":"_rlpHeader","type":"bytes"},{"internalType":"bytes","name":"_rlpSetCheckpointTx","type":"bytes"},{"internalType":"bytes","name":"_rlpSetCheckpointTxIndex","type":"bytes"},{"internalType":"bytes","name":"_rlpSetCheckpointTxProof","type":"bytes"}],"name":"relayCheckpointBlock","outputs":[{"internalType":"bool","name":"","type":"bool"}],"payable":true,"stateMutability":"payable","type":"function"},{"constant":false,"inputs":[],"name":"renounceOwnership","outputs":[],"payable":false,"stateMutability":"nonpayable","type":"function"},{"constant":false,"inputs":[{"internalType":"uint256","name":"_finalityConfirms","type":"uint256"}],"name":"setFinalityConfirms","outputs":[{"internalType":"bool","name":"","type":"bool"}],"payable":false,"stateMutability":"nonpayable","type":"function"},{"constant":false,"inputs":[{"internalType":"address","name":"newOwner","type":"address"}],"name":"transferOwnership","outputs":[],"payable":false,"stateMutability":"nonpayable","type":"function"},{"constant":true,"inputs":[{"internalType":"uint256","name":"","type":"uint256"}],"name":"verifiedBlocks","outputs":[{"internalType":"bool","name":"","type":"bool"}],"payable":false,"stateMutability":"view","type":"function"},{"constant":true,"inputs":[{"internalType":"bytes","name":"_rlpTx","type":"bytes"},{"internalType":"bytes","name":"_rlpPath","type":"bytes"},{"internalType":"bytes","name":"_rlpParentNodes","type":"bytes"},{"internalType":"uint256","name":"_blockHash","type":"uint256"}],"name":"verifyTx","outputs":[{"internalType":"bool","name":"","type":"bool"}],"payable":false,"stateMutability":"view","type":"function"},{"constant":true,"inputs":[],"name":"version","outputs":[{"internalType":"string","name":"","type":"string"}],"payable":false,"stateMutability":"view","type":"function"}],"bytecode":"0x60806040523480156200001157600080fd5b50620000226200010d60201b60201c565b600c60006101000a81548173ffffffffffffffffffffffffffffffffffffffff021916908373ffffffffffffffffffffffffffffffffffffffff160217905550600c60009054906101000a900473ffffffffffffffffffffffffffffffffffffffff1673ffffffffffffffffffffffffffffffffffffffff16600073ffffffffffffffffffffffffffffffffffffffff167f8be0079c531659141344cd1fd0a4f28419497f9722a3daafe3b4186f6b6457e060405160405180910390a3600d600f81905550620000f76200011560201b60201c565b620001076200044260201b60201c565b62000713565b600033905090565b6200011f620006c7565b6040518061012001604052807f637ebdba5b5ee086732e52b746d893a952adfc82994d8ada987d5f77096d435581526020017fea1ae5cef6eeb461c47474b0aa4a17160f8aae203c389b7d3dde6ebb56a746a081526020017fdc199152db6ae292b83f8c1bf11c068e415b9d5f96980e7c1decb1420068b07881526020017fedc79dd361388db3ac716b3dfd7228b58c8aad5f440cb1a57fe17645b925d4578152602001628a61d7815260200166091b1db69ec78c81526020017feeeeeeeeeeeeeeeeeeeeeeeeeeeeeeeeeeeeeeeeeeeeeeeeeeeeeeeeef7950c58152602001635dec439581526020017f420590e149a2f90746dc51e45cd77992e15e9abc7a9a2279472467185a92f858815250905080610100015160008190555080600160008361010001518152602001908152602001600020600082015181600001556020820151816001015560408201518160020155606082015181600301556080820151816004015560a0820151816005015560c0820151816006015560e082015181600701556101008201518160080155905050600160026000836101000151815260200190815260200160002060006101000a81548160ff021916908315150217905550600160036000836101000151815260200190815260200160002060006101000a81548160ff021916908315150217905550600160046000836101000151815260200190815260200160002060006101000a81548160ff021916908315150217905550600560008260800151815260200190815260200160002081610100015190806001815401808255809150509060018203906000526020600020016000909192909190915055506001600660008360800151815260200190815260200160002060006101000a81548160ff0219169083151502179055508060800151600781905550806101000151600881905550600160096000836101000151815260200190815260200160002060006101000a81548160ff0219169083151502179055506001600a60008360800151815260200190815260200160002060006101000a81548160ff021916908315150217905550806101000151600b8190555050565b739a9070028361f7aabeb3f2f2dc07f82c4a98a02a600d60000160006101000a81548173ffffffffffffffffffffffffffffffffffffffff021916908373ffffffffffffffffffffffffffffffffffffffff1602179055506001600d6001016000731b2c260efc720be89101890e4db589b44e95052773ffffffffffffffffffffffffffffffffffffffff1673ffffffffffffffffffffffffffffffffffffffff16815260200190815260200160002060006101000a81548160ff0219169083151502179055506001600d60010160007378d1ad571a1a09d60d9bbf25894b44e4c885959573ffffffffffffffffffffffffffffffffffffffff1673ffffffffffffffffffffffffffffffffffffffff16815260200190815260200160002060006101000a81548160ff0219169083151502179055506001600d600101600073286834935f4a8cfb4ff4c77d5770c2775ae2b0e773ffffffffffffffffffffffffffffffffffffffff1673ffffffffffffffffffffffffffffffffffffffff16815260200190815260200160002060006101000a81548160ff0219169083151502179055506001600d600101600073b86e2b0ab5a4b1373e40c51a7c712c70ba2f9f8e73ffffffffffffffffffffffffffffffffffffffff1673ffffffffffffffffffffffffffffffffffffffff16815260200190815260200160002060006101000a81548160ff0219169083151502179055506001600d600101600073b86e2b0ab5a4b1373e40c51a7c712c70ba2f9f8e73ffffffffffffffffffffffffffffffffffffffff1673ffffffffffffffffffffffffffffffffffffffff16815260200190815260200160002060006101000a81548160ff021916908315150217905550565b6040518061012001604052806000815260200160008152602001600081526020016000815260200160008152602001600081526020016000815260200160008152602001600081525090565b6145bc80620007236000396000f3fe6080604052600436106101145760003560e01c806354fd4d50116100a0578063b1d3e15911610064578063b1d3e159146109c2578063c4dd6d0314610a15578063d072e8d714610a40578063f25b3f9914610a6b578063f2fde38b14610af257610114565b806354fd4d5014610842578063715018a6146108d25780638da5cb5b146108e95780638f32d59b14610940578063a8b00a341461096f57610114565b806326ddabe7116100e757806326ddabe7146103da57806341e63749146106725780634b804d7f146106c55780634d2a97771461071c5780634f4dfcfd1461076f57610114565b8063020d15f71461011957806304adf69f14610331578063114c11371461035c578063231b0268146103af575b600080fd5b34801561012557600080fd5b506103176004803603608081101561013c57600080fd5b810190808035906020019064010000000081111561015957600080fd5b82018360208201111561016b57600080fd5b8035906020019184600183028401116401000000008311171561018d57600080fd5b91908080601f016020809104026020016040519081016040528093929190818152602001838380828437600081840152601f19601f820116905080830192505050505050509192919290803590602001906401000000008111156101f057600080fd5b82018360208201111561020257600080fd5b8035906020019184600183028401116401000000008311171561022457600080fd5b91908080601f016020809104026020016040519081016040528093929190818152602001838380828437600081840152601f19601f8201169050808301925050505050505091929192908035906020019064010000000081111561028757600080fd5b82018360208201111561029957600080fd5b803590602001918460018302840111640100000000831117156102bb57600080fd5b91908080601f016020809104026020016040519081016040528093929190818152602001838380828437600081840152601f19601f82011690508083019250505050505050919291929080359060200190929190505050610b43565b604051808215151515815260200191505060405180910390f35b34801561033d57600080fd5b50610346610ba3565b6040518082815260200191505060405180910390f35b34801561036857600080fd5b506103956004803603602081101561037f57600080fd5b8101908080359060200190929190505050610ba9565b604051808215151515815260200191505060405180910390f35b3480156103bb57600080fd5b506103c46111e0565b6040518082815260200191505060405180910390f35b610658600480360360808110156103f057600080fd5b810190808035906020019064010000000081111561040d57600080fd5b82018360208201111561041f57600080fd5b8035906020019184600183028401116401000000008311171561044157600080fd5b91908080601f016020809104026020016040519081016040528093929190818152602001838380828437600081840152601f19601f820116905080830192505050505050509192919290803590602001906401000000008111156104a457600080fd5b8201836020820111156104b657600080fd5b803590602001918460018302840111640100000000831117156104d857600080fd5b91908080601f016020809104026020016040519081016040528093929190818152602001838380828437600081840152601f19601f8201169050808301925050505050505091929192908035906020019064010000000081111561053b57600080fd5b82018360208201111561054d57600080fd5b8035906020019184600183028401116401000000008311171561056f57600080fd5b91908080601f016020809104026020016040519081016040528093929190818152602001838380828437600081840152601f19601f820116905080830192505050505050509192919290803590602001906401000000008111156105d257600080fd5b8201836020820111156105e457600080fd5b8035906020019184600183028401116401000000008311171561060657600080fd5b91908080601f016020809104026020016040519081016040528093929190818152602001838380828437600081840152601f19601f8201169050808301925050505050505091929192905050506111e6565b604051808215151515815260200191505060405180910390f35b34801561067e57600080fd5b506106ab6004803603602081101561069557600080fd5b810190808035906020019092919050505061182e565b604051808215151515815260200191505060405180910390f35b3480156106d157600080fd5b506106da61184e565b604051808273ffffffffffffffffffffffffffffffffffffffff1673ffffffffffffffffffffffffffffffffffffffff16815260200191505060405180910390f35b34801561072857600080fd5b506107556004803603602081101561073f57600080fd5b810190808035906020019092919050505061187a565b604051808215151515815260200191505060405180910390f35b6108286004803603602081101561078557600080fd5b81019080803590602001906401000000008111156107a257600080fd5b8201836020820111156107b457600080fd5b803590602001918460018302840111640100000000831117156107d657600080fd5b91908080601f016020809104026020016040519081016040528093929190818152602001838380828437600081840152601f19601f820116905080830192505050505050509192919290505050611969565b604051808215151515815260200191505060405180910390f35b34801561084e57600080fd5b50610857611ec7565b6040518080602001828103825283818151815260200191508051906020019080838360005b8381101561089757808201518184015260208101905061087c565b50505050905090810190601f1680156108c45780820380516001836020036101000a031916815260200191505b509250505060405180910390f35b3480156108de57600080fd5b506108e7611f00565b005b3480156108f557600080fd5b506108fe61203b565b604051808273ffffffffffffffffffffffffffffffffffffffff1673ffffffffffffffffffffffffffffffffffffffff16815260200191505060405180910390f35b34801561094c57600080fd5b50610955612065565b604051808215151515815260200191505060405180910390f35b34801561097b57600080fd5b506109a86004803603602081101561099257600080fd5b81019080803590602001909291905050506120c4565b604051808215151515815260200191505060405180910390f35b3480156109ce57600080fd5b506109fb600480360360208110156109e557600080fd5b81019080803590602001909291905050506120e4565b604051808215151515815260200191505060405180910390f35b348015610a2157600080fd5b50610a2a612104565b6040518082815260200191505060405180910390f35b348015610a4c57600080fd5b50610a5561210a565b6040518082815260200191505060405180910390f35b348015610a7757600080fd5b50610aa460048036036020811015610a8e57600080fd5b8101908080359060200190929190505050612110565b604051808a8152602001898152602001888152602001878152602001868152602001858152602001848152602001838152602001828152602001995050505050505050505060405180910390f35b348015610afe57600080fd5b50610b4160048036036020811015610b1557600080fd5b81019080803573ffffffffffffffffffffffffffffffffffffffff16906020019092919050505061215e565b005b60006002600083815260200190815260200160002060009054906101000a900460ff16610b735760009050610b9b565b610b98858585600160008781526020019081526020016000206002015460001b6121e4565b90505b949350505050565b60085481565b60006002600083815260200190815260200160002060009054906101000a900460ff16610c21576040517f08c379a000000000000000000000000000000000000000000000000000000000815260040180806020018281038252602c815260200180614382602c913960400191505060405180910390fd5b6004600083815260200190815260200160002060009054906101000a900460ff1615610c98576040517f08c379a000000000000000000000000000000000000000000000000000000000815260040180806020018281038252602e815260200180614426602e913960400191505060405180910390fd5b610ca06140b9565b60016000848152602001908152602001600020604051806101200160405290816000820154815260200160018201548152602001600282015481526020016003820154815260200160048201548152602001600582015481526020016006820154815260200160078201548152602001600882015481525050905080608001516001600060085481526020019081526020016000206004015411610d8f576040517f08c379a000000000000000000000000000000000000000000000000000000000815260040180806020018281038252603b8152602001806143eb603b913960400191505060405180910390fd5b6000600854905060008090506000600184608001510190505b600160006008548152602001908152602001600020600401548111610edb57600a600082815260200190815260200160002060009054906101000a900460ff1615610ece57606060056000838152602001908152602001600020805480602002602001604051908101604052809291908181526020018280548015610e4c57602002820191906000526020600020905b815481526020019060010190808311610e38575b5050505050905060008090505b8151811015610ec75760096000838381518110610e7257fe5b6020026020010151815260200190815260200160002060009054906101000a900460ff1615610eba57818181518110610ea757fe5b6020026020010151945060019350610ec7565b8080600101915050610e59565b5050610edb565b8080600101915050610da8565b506000836080015160016000858152602001908152602001600020600401540390506000809050600080905060006001600060085481526020019081526020016000206008015490505b8382101561100c576002600082815260200190815260200160002060009054906101000a900460ff16610fa3576040517f08c379a000000000000000000000000000000000000000000000000000000000815260040180806020018281038252603b8152602001806143eb603b913960400191505060405180910390fd5b82158015610fce57506004600082815260200190815260200160002060009054906101000a900460ff165b15610fd857600192505b600160008281526020019081526020016000206000015490506110056001836124b490919063ffffffff16565b9150610f25565b888114801561102d5750848061101f5750825b8061102c5750600f548410155b5b611082576040517f08c379a000000000000000000000000000000000000000000000000000000000815260040180806020018281038252602f815260200180614353602f913960400191505060405180910390fd5b6001600460008b815260200190815260200160002060006101000a81548160ff0219169083151502179055506060600560008960800151815260200190815260200160002080548060200260200160405190810160405280929190818152602001828054801561111157602002820191906000526020600020905b8154815260200190600101908083116110fd575b50505050509050600092505b80518310156111cf578981848151811061113357fe5b60200260200101511415801561117957506004600082858151811061115457fe5b6020026020010151815260200190815260200160002060009054906101000a900460ff165b156111c25760006004600083868151811061119057fe5b6020026020010151815260200190815260200160002060006101000a81548160ff0219169083151502179055506111cf565b828060010193505061111d565b600198505050505050505050919050565b60005481565b6000806111f28661253c565b90506009600082815260200190815260200160002060009054906101000a900460ff161561126b576040517f08c379a00000000000000000000000000000000000000000000000000000000081526004018080602001828103825260358152602001806144796035913960400191505060405180910390fd5b611273614105565b61127c87612550565b905060006112898861283f565b905060006112ad8361010001518460e00151856101c00151866101a001518661290e565b905080611305576040517f08c379a000000000000000000000000000000000000000000000000000000000815260040180806020018281038252602f8152602001806142f4602f913960400191505060405180910390fd5b600061131a898989876080015160001b6121e4565b905080611372576040517f08c379a000000000000000000000000000000000000000000000000000000000815260040180806020018281038252603d8152602001806143ae603d913960400191505060405180910390fd5b61137a614191565b6113838a6129f0565b90506113948160a00151600d612bec565b6113e9576040517f08c379a000000000000000000000000000000000000000000000000000000000815260040180806020018281038252602e8152602001806142c6602e913960400191505060405180910390fd5b6113f16140b9565b6040518061012001604052808760000151815260200187606001518152602001876080015181526020018760a00151815260200187610100015181526020018760e0015181526020016114727feeeeeeeeeeeeeeeeeeeeeeeeeeeeeeeeeeeeeeeeeeeeeeeeeeeeeeeeeeeeeeee8961010001516124b490919063ffffffff16565b815260200187610160015181526020018881525090508060016000898152602001908152602001600020600082015181600001556020820151816001015560408201518160020155606082015181600301556080820151816004015560a0820151816005015560c0820151816006015560e08201518160070155610100820151816008015590505060016002600089815260200190815260200160002060006101000a81548160ff02191690831515021790555060016003600089815260200190815260200160002060006101000a81548160ff02191690831515021790555060016004600089815260200190815260200160002060006101000a81548160ff02191690831515021790555060016009600089815260200190815260200160002060006101000a81548160ff0219169083151502179055506001600a6000600160008b815260200190815260200160002060040154815260200190815260200160002060006101000a81548160ff02191690831515021790555060016000600b548152602001908152602001600020600401546001600089815260200190815260200160002060040154111561162a5786600b819055505b600560008761010001518152602001908152602001600020879080600181540180825580915050906001820390600052602060002001600090919290919091505550600160066000886101000151815260200190815260200160002060006101000a81548160ff02191690831515021790555060075486610100015111156116b9578561010001516007819055505b600160006008548152602001908152602001600020600601548160c0015111156116e557866008819055505b606060056000600160008b815260200190815260200160002060040154815260200190815260200160002080548060200260200160405190810160405280929190818152602001828054801561175a57602002820191906000526020600020905b815481526020019060010190808311611746575b5050505050905060008090505b8151811015611819578882828151811061177d57fe5b6020026020010151141580156117c357506004600083838151811061179e57fe5b6020026020010151815260200190815260200160002060009054906101000a900460ff165b1561180c576000600460008484815181106117da57fe5b6020026020010151815260200190815260200160002060006101000a81548160ff021916908315150217905550611819565b8080600101915050611767565b50600198505050505050505050949350505050565b60026020528060005260406000206000915054906101000a900460ff1681565b600d8060000160009054906101000a900473ffffffffffffffffffffffffffffffffffffffff16905081565b6000611884612065565b6118f6576040517f08c379a00000000000000000000000000000000000000000000000000000000081526004018080602001828103825260208152602001807f4f776e61626c653a2063616c6c6572206973206e6f7420746865206f776e657281525060200191505060405180910390fd5b6000821161194f576040517f08c379a00000000000000000000000000000000000000000000000000000000081526004018080602001828103825260308152602001806145276030913960400191505060405180910390fd5b600f5482146119605781600f819055505b60019050919050565b6000806119758361253c565b90506002600082815260200190815260200160002060009054906101000a900460ff16156119ee576040517f08c379a00000000000000000000000000000000000000000000000000000000081526004018080602001828103825260298152602001806142776029913960400191505060405180910390fd5b6119f6614105565b6119ff84612550565b9050600260008260000151815260200190815260200160002060009054906101000a900460ff16611a7b576040517f08c379a00000000000000000000000000000000000000000000000000000000081526004018080602001828103825260308152602001806144f76030913960400191505060405180910390fd5b611aa8600180600084600001518152602001908152602001600020600401546124b490919063ffffffff16565b81610100015114611b04576040517f08c379a00000000000000000000000000000000000000000000000000000000081526004018080602001828103825260308152602001806143236030913960400191505060405180910390fd5b60016000826000015181526020019081526020016000206007015481610160015111611b7b576040517f08c379a00000000000000000000000000000000000000000000000000000000081526004018080602001828103825260258152602001806144546025913960400191505060405180910390fd5b611ba38160e00151600160008460000151815260200190815260200160002060050154612f3c565b611bf8576040517f08c379a00000000000000000000000000000000000000000000000000000000081526004018080602001828103825260268152602001806142516026913960400191505060405180910390fd5b6000611c038561283f565b90506000611c278361010001518460e00151856101c00151866101a001518661290e565b905080611c9c576040517f08c379a000000000000000000000000000000000000000000000000000000000815260040180806020018281038252601f8152602001807f52656c617920626c6f636b206661696c65643a20696e76616c696420506f570081525060200191505060405180910390fd5b611ca46140b9565b6040518061012001604052808560000151815260200185606001518152602001856080015181526020018560a00151815260200185610100015181526020018560e001518152602001611d1e8660e001516001600089600001518152602001908152602001600020600601546124b490919063ffffffff16565b815260200185610160015181526020018681525090508060016000878152602001908152602001600020600082015181600001556020820151816001015560408201518160020155606082015181600301556080820151816004015560a0820151816005015560c0820151816006015560e08201518160070155610100820151816008015590505060016002600087815260200190815260200160002060006101000a81548160ff02191690831515021790555060016003600087815260200190815260200160002060006101000a81548160ff021916908315150217905550600560008561010001518152602001908152602001600020859080600181540180825580915050906001820390600052602060002001600090919290919091505550600160066000866101000151815260200190815260200160002060006101000a81548160ff0219169083151502179055506007548461010001511115611e8d578361010001516007819055505b600160006008548152602001908152602001600020600601548160c001511115611eb957846008819055505b600195505050505050919050565b6040518060400160405280600581526020017f312e302e3000000000000000000000000000000000000000000000000000000081525081565b611f08612065565b611f7a576040517f08c379a00000000000000000000000000000000000000000000000000000000081526004018080602001828103825260208152602001807f4f776e61626c653a2063616c6c6572206973206e6f7420746865206f776e657281525060200191505060405180910390fd5b600073ffffffffffffffffffffffffffffffffffffffff16600c60009054906101000a900473ffffffffffffffffffffffffffffffffffffffff1673ffffffffffffffffffffffffffffffffffffffff167f8be0079c531659141344cd1fd0a4f28419497f9722a3daafe3b4186f6b6457e060405160405180910390a36000600c60006101000a81548173ffffffffffffffffffffffffffffffffffffffff021916908373ffffffffffffffffffffffffffffffffffffffff160217905550565b6000600c60009054906101000a900473ffffffffffffffffffffffffffffffffffffffff16905090565b6000600c60009054906101000a900473ffffffffffffffffffffffffffffffffffffffff1673ffffffffffffffffffffffffffffffffffffffff166120a8612f6a565b73ffffffffffffffffffffffffffffffffffffffff1614905090565b60046020528060005260406000206000915054906101000a900460ff1681565b60036020528060005260406000206000915054906101000a900460ff1681565b600f5481565b60075481565b60016020528060005260406000206000915090508060000154908060010154908060020154908060030154908060040154908060050154908060060154908060070154908060080154905089565b612166612065565b6121d8576040517f08c379a00000000000000000000000000000000000000000000000000000000081526004018080602001828103825260208152602001807f4f776e61626c653a2063616c6c6572206973206e6f7420746865206f776e657281525060200191505060405180910390fd5b6121e181612f72565b50565b60006121ee6141fc565b6121f7846130b8565b90506060612204826130e6565b905060608060008690506000809050606061221e8b6131c3565b905060008151141561223a5760009750505050505050506124ac565b60008090505b86518110156124a3578151831115612263576000985050505050505050506124ac565b61227f87828151811061227257fe5b602002602001015161334a565b9550858051906020012084146122a0576000985050505050505050506124ac565b6122bc8782815181106122af57fe5b60200260200101516130e6565b945060118551141561238e578151831415612325578c805190602001206122f6866010815181106122e957fe5b60200260200101516133c0565b805190602001201415612314576001985050505050505050506124ac565b6000985050505050505050506124ac565b600082848151811061233357fe5b602001015160f81c60f81b60f81c905060108160ff16111561236157600099505050505050505050506124ac565b612380868260ff168151811061237357fe5b602002602001015161344c565b945060018401935050612496565b600285511415612484576123bf6123b8866000815181106123ab57fe5b602002602001015161334a565b8385613468565b830192508151831415612420578c805190602001206123f1866001815181106123e457fe5b60200260200101516133c0565b80519060200120141561240f576001985050505050505050506124ac565b6000985050505050505050506124ac565b60006124496124428760008151811061243557fe5b602002602001015161334a565b8486613468565b1415612460576000985050505050505050506124ac565b61247d8560018151811061247057fe5b602002602001015161344c565b9350612495565b6000985050505050505050506124ac565b5b8080600101915050612240565b50505050505050505b949350505050565b600080828401905083811015612532576040517f08c379a000000000000000000000000000000000000000000000000000000000815260040180806020018281038252601b8152602001807f536166654d6174683a206164646974696f6e206f766572666c6f77000000000081525060200191505060405180910390fd5b8091505092915050565b6000818051906020012060001c9050919050565b612558614105565b612560614216565b61257161256c846130b8565b61355b565b905060005b61257f826135a9565b156128355760008114156125ac5761259e612599836135d3565b61362d565b836000018181525050612828565b60018114156125d4576125c66125c1836135d3565b61362d565b836020018181525050612827565b600281141561262a576125ee6125e9836135d3565b61369e565b836040019073ffffffffffffffffffffffffffffffffffffffff16908173ffffffffffffffffffffffffffffffffffffffff1681525050612826565b60038114156126525761264461263f836135d3565b61362d565b836060018181525050612825565b600481141561267a5761266c612667836135d3565b61362d565b836080018181525050612824565b60058114156126a25761269461268f836135d3565b61362d565b8360a0018181525050612823565b60068114156126c9576126bc6126b7836135d3565b6133c0565b8360c00181905250612822565b60078114156126f1576126e36126de836135d3565b61362d565b8360e0018181525050612821565b600881141561271a5761270b612706836135d3565b61362d565b83610100018181525050612820565b60098114156127435761273461272f836135d3565b61362d565b8361012001818152505061281f565b600a81141561276c5761275d612758836135d3565b61362d565b8361014001818152505061281e565b600b81141561279557612786612781836135d3565b61362d565b8361016001818152505061281d565b600c8114156127bd576127af6127aa836135d3565b6133c0565b83610180018190525061281c565b600d8114156127e6576127d76127d2836135d3565b61362d565b836101a001818152505061281b565b600e81141561280f576128006127fb836135d3565b61362d565b836101c001818152505061281a565b612818826135d3565b505b5b5b5b5b5b5b5b5b5b5b5b5b5b5b8080600101915050612576565b8292505050919050565b60006060600d60405190808252806020026020018201604052801561287857816020015b60608152602001906001900390816128635790505b509050612883614216565b61289461288f856130b8565b61355b565b905060008090505b6128a5826135a9565b80156128b15750600d81105b156128eb576128c76128c2836135d3565b61334a565b8382815181106128d357fe5b6020026020010181905250808060010191505061289c565b60606128f6846136c1565b9050808051906020012060001c945050505050919050565b6000606086868686866040516020018086815260200185815260200184815260200183815260200182815260200195505050505050604051602081830303815290604052905060008151905060006001905060008090506040516020818560208801600060fe600019f161298157600092505b8051915050816129dc576040517f08c379a00000000000000000000000000000000000000000000000000000000081526004018080602001828103825260318152602001806145576031913960400191505060405180910390fd5b600081141594505050505095945050505050565b6129f8614191565b612a00614216565b612a11612a0c846130b8565b61355b565b905060005b612a1f826135a9565b15612be2576000811415612a4c57612a3e612a39836135d3565b61362d565b836000018181525050612bd5565b6001811415612a7457612a66612a61836135d3565b61362d565b836020018181525050612bd4565b6002811415612a9c57612a8e612a89836135d3565b61362d565b836040018181525050612bd3565b6003811415612af257612ab6612ab1836135d3565b61369e565b836060019073ffffffffffffffffffffffffffffffffffffffff16908173ffffffffffffffffffffffffffffffffffffffff1681525050612bd2565b6004811415612b1a57612b0c612b07836135d3565b61362d565b836080018181525050612bd1565b6005811415612b4157612b34612b2f836135d3565b6133c0565b8360a00181905250612bd0565b6006811415612b7157612b5b612b56836135d3565b61362d565b8360c0019060ff16908160ff1681525050612bcf565b6007811415612b9957612b8b612b86836135d3565b61344c565b8360e0018181525050612bce565b6008811415612bc257612bb3612bae836135d3565b61344c565b83610100018181525050612bcd565b612bcb826135d3565b505b5b5b5b5b5b5b5b5b8080600101915050612a16565b8292505050919050565b6000806000806000806060806060612c038b6136ec565b809850819950829a50839b50849c50859d50869e50879f50505050505050505060405180806144ae60499139604901905060405180910390207bffffffffffffffffffffffffffffffffffffffffffffffffffffffff1916887bffffffffffffffffffffffffffffffffffffffffffffffffffffffff191614612c9157600098505050505050505050612f36565b81518351141580612ca457508051835114155b15612cba57600098505050505050505050612f36565b6000601960f81b600060f81b8c60000160009054906101000a900473ffffffffffffffffffffffffffffffffffffffff16878960405160200180867effffffffffffffffffffffffffffffffffffffffffffffffffffffffffffff19167effffffffffffffffffffffffffffffffffffffffffffffffffffffffffffff19168152600101857effffffffffffffffffffffffffffffffffffffffffffffffffffffffffffff19167effffffffffffffffffffffffffffffffffffffffffffffffffffffffffffff191681526001018473ffffffffffffffffffffffffffffffffffffffff1673ffffffffffffffffffffffffffffffffffffffff1660601b81526014018367ffffffffffffffff1667ffffffffffffffff1660c01b81526008018281526020019550505050505060405160208183030381529060405280519060200120905060008090505b8451811015612f27576000600183878481518110612e1f57fe5b6020026020010151878581518110612e3357fe5b6020026020010151878681518110612e4757fe5b602002602001015160405160008152602001604052604051808581526020018460ff1660ff1681526020018381526020018281526020019450505050506020604051602081039080840390855afa158015612ea6573d6000803e3d6000fd5b5050506020604051035190508c60010160008273ffffffffffffffffffffffffffffffffffffffff1673ffffffffffffffffffffffffffffffffffffffff16815260200190815260200160002060009054906101000a900460ff16612f195760009b505050505050505050505050612f36565b508080600101915050612e05565b50600199505050505050505050505b92915050565b6000612f5f60636127108481612f4e57fe5b04028361388690919063ffffffff16565b831015905092915050565b600033905090565b600073ffffffffffffffffffffffffffffffffffffffff168173ffffffffffffffffffffffffffffffffffffffff161415612ff8576040517f08c379a00000000000000000000000000000000000000000000000000000000081526004018080602001828103825260268152602001806142a06026913960400191505060405180910390fd5b8073ffffffffffffffffffffffffffffffffffffffff16600c60009054906101000a900473ffffffffffffffffffffffffffffffffffffffff1673ffffffffffffffffffffffffffffffffffffffff167f8be0079c531659141344cd1fd0a4f28419497f9722a3daafe3b4186f6b6457e060405160405180910390a380600c60006101000a81548173ffffffffffffffffffffffffffffffffffffffff021916908373ffffffffffffffffffffffffffffffffffffffff16021790555050565b6130c06141fc565b600060208301905060405180604001604052808451815260200182815250915050919050565b60606130f1826138d0565b6130fa57600080fd5b60006131058361391e565b905060608160405190808252806020026020018201604052801561314357816020015b613130614236565b8152602001906001900390816131285790505b5090506000613155856020015161398f565b8560200151019050600080600090505b848110156131b65761317683613a18565b915060405180604001604052808381526020018481525084828151811061319957fe5b602002602001018190525081830192508080600101915050613165565b5082945050505050919050565b606080600083511115613341576000806131de600086613ad0565b60f81c905060018160ff1614806131f8575060038160ff16145b156132905760016002865102036040519080825280601f01601f1916602001820160405280156132375781602001600182028038833980820191505090505b5092506000613247600187613ad0565b9050808460008151811061325757fe5b60200101907effffffffffffffffffffffffffffffffffffffffffffffffffffffffffffff1916908160001a90535060019250506132d1565b600280865102036040519080825280601f01601f1916602001820160405280156132c95781602001600182028038833980820191505090505b509250600091505b60008260ff1690505b835181101561333d576132f560028460ff1683030187613ad0565b84828151811061330157fe5b60200101907effffffffffffffffffffffffffffffffffffffffffffffffffffffffffffff1916908160001a90535080806001019150506132da565b5050505b80915050919050565b60608082600001516040519080825280601f01601f1916602001820160405280156133845781602001600182028038833980820191505090505b50905060008151141561339a57809150506133bb565b60008160200190506133b58460200151828660000151613b56565b81925050505b919050565b606060008260000151116133d357600080fd5b60006133e2836020015161398f565b905060008184600001510390506060816040519080825280601f01601f1916602001820160405280156134245781602001600182028038833980820191505090505b5090506000816020019050613440848760200151018285613b56565b81945050505050919050565b600061346161345a836133c0565b6000613bbd565b9050919050565b6000806060613476866131c3565b9050606081516040519080825280601f01601f1916602001820160405280156134ae5781602001600182028038833980820191505090505b50905060008590505b825186018110156135295760008782815181106134d057fe5b602001015160f81c60f81b90508083888403815181106134ec57fe5b60200101907effffffffffffffffffffffffffffffffffffffffffffffffffffffffffffff1916908160001a9053505080806001019150506134b7565b50808051906020012082805190602001201415613549578151925061354e565b600092505b8293505050509392505050565b613563614216565b61356c826138d0565b61357557600080fd5b6000613584836020015161398f565b8360200151019050604051806040016040528084815260200182815250915050919050565b60006135b36141fc565b826000015190508060000151816020015101836020015110915050919050565b6135db6141fc565b6135e4826135a9565b6135ed57600080fd5b600082602001519050600061360182613a18565b905080820184602001818152505060405180604001604052808281526020018381525092505050919050565b600080826000015111801561364757506021826000015111155b61365057600080fd5b600061365f836020015161398f565b9050600081846000015103905060008083866020015101905080519150602083101561369257826020036101000a820491505b81945050505050919050565b600060158260000151146136b157600080fd5b6136ba8261362d565b9050919050565b6060806136cd83613c32565b90506136e46136de825160c0613d60565b82613f14565b915050919050565b6000806000806000606080606060008060008060008060208f01519d5060248f0180519d5060208101519c5060408101519b5060608101519a506080810151808201519750602081018201945060a08201519050808201519650602081018201935060c0820151905080820151955060208101820192505050856040519080825280602002602001820160405280156137945781602001602082028038833980820191505090505b509850846040519080825280602002602001820160405280156137c65781602001602082028038833980820191505090505b509750836040519080825280602002602001820160405280156137f85781602001602082028038833980820191505090505b50965060005b868110156138225780602002840151816020026020018b01526001810190506137fe565b600090505b8581101561384b5780602002830151816020026020018a0152600181019050613827565b600090505b84811015613874578060200282015181602002602001890152600181019050613850565b50505050505050919395975091939597565b60006138c883836040518060400160405280601e81526020017f536166654d6174683a207375627472616374696f6e206f766572666c6f770000815250613f9e565b905092915050565b600080826000015114156138e75760009050613919565b60008083602001519050805160001a915060c060ff168260ff16101561391257600092505050613919565b6001925050505b919050565b60008082600001511415613935576000905061398a565b60008090506000613949846020015161398f565b84602001510190506000846000015185602001510190505b808210156139835761397282613a18565b820191508280600101935050613961565b8293505050505b919050565b600080825160001a9050608060ff168110156139af576000915050613a13565b60b860ff168110806139d4575060c060ff1681101580156139d3575060f860ff1681105b5b156139e3576001915050613a13565b60c060ff16811015613a035760018060b80360ff16820301915050613a13565b60018060f80360ff168203019150505b919050565b6000806000835160001a9050608060ff16811015613a395760019150613ac6565b60b860ff16811015613a56576001608060ff168203019150613ac5565b60c060ff16811015613a865760b78103600185019450806020036101000a85510460018201810193505050613ac4565b60f860ff16811015613aa357600160c060ff168203019150613ac3565b60f78103600185019450806020036101000a855104600182018101935050505b5b5b5b8192505050919050565b60008060028481613add57fe5b0614613b195760108260028581613af057fe5b0481518110613afb57fe5b602001015160f81c60f81b60f81c60ff1681613b1357fe5b06613b4b565b60108260028581613b2657fe5b0481518110613b3157fe5b602001015160f81c60f81b60f81c60ff1681613b4957fe5b045b60f81b905092915050565b6000811415613b6457613bb8565b5b602060ff168110613b945782518252602060ff1683019250602060ff1682019150602060ff1681039050613b65565b6000600182602060ff16036101000a03905080198451168184511681811785525050505b505050565b60008060008090505b6020811015613c27576008810260ff60f81b8683870181518110613be657fe5b602001015160f81c60f81b167effffffffffffffffffffffffffffffffffffffffffffffffffffffffffffff1916901c821791508080600101915050613bc6565b508091505092915050565b6060600082511415613c7a5760006040519080825280601f01601f191660200182016040528015613c725781602001600182028038833980820191505090505b509050613d5b565b600080600090505b8351811015613cb157838181518110613c9757fe5b602002602001015151820191508080600101915050613c82565b6060826040519080825280601f01601f191660200182016040528015613ce65781602001600182028038833980820191505090505b5090506000602082019050600092505b8551831015613d53576060868481518110613d0d57fe5b602002602001015190506000602082019050613d2b8382845161405e565b878581518110613d3757fe5b6020026020010151518301925050508280600101935050613cf6565b819450505050505b919050565b6060806038841015613dea5760016040519080825280601f01601f191660200182016040528015613da05781602001600182028038833980820191505090505b50905082840160f81b81600081518110613db657fe5b60200101907effffffffffffffffffffffffffffffffffffffffffffffffffffffffffffff1916908160001a905350613f0a565b600080600190505b6000818781613dfd57fe5b0414613e1757818060010192505061010081029050613df2565b600182016040519080825280601f01601f191660200182016040528015613e4d5781602001600182028038833980820191505090505b50925060378583010160f81b83600081518110613e6657fe5b60200101907effffffffffffffffffffffffffffffffffffffffffffffffffffffffffffff1916908160001a905350600190505b818111613f07576101008183036101000a8781613eb357fe5b0481613ebb57fe5b0660f81b838281518110613ecb57fe5b60200101907effffffffffffffffffffffffffffffffffffffffffffffffffffffffffffff1916908160001a9053508080600101915050613e9a565b50505b8091505092915050565b6060806040519050835180825260208201818101602087015b81831015613f4a5780518352602083019250602081019050613f2d565b50855192508351830184528091508282019050602086015b81831015613f7f5780518352602083019250602081019050613f62565b50601f19601f8851850115830101166040525050508091505092915050565b600083831115829061404b576040517f08c379a00000000000000000000000000000000000000000000000000000000081526004018080602001828103825283818151815260200191508051906020019080838360005b83811015614010578082015181840152602081019050613ff5565b50505050905090810190601f16801561403d5780820380516001836020036101000a031916815260200191505b509250505060405180910390fd5b5060008385039050809150509392505050565b6000839050600083905060008390505b60208110614091578151835260208301925060208201915060208103905061406e565b60006001826020036101000a0390508019835116818551168181178652505050505050505050565b6040518061012001604052806000815260200160008152602001600081526020016000815260200160008152602001600081526020016000815260200160008152602001600081525090565b604051806101e001604052806000815260200160008152602001600073ffffffffffffffffffffffffffffffffffffffff1681526020016000815260200160008152602001600081526020016060815260200160008152602001600081526020016000815260200160008152602001600081526020016060815260200160008152602001600081525090565b604051806101200160405280600081526020016000815260200160008152602001600073ffffffffffffffffffffffffffffffffffffffff1681526020016000815260200160608152602001600060ff16815260200160008019168152602001600080191681525090565b604051806040016040528060008152602001600081525090565b6040518060400160405280614229614236565b8152602001600081525090565b60405180604001604052806000815260200160008152509056fe52656c617920626c6f636b206661696c65643a20696e76616c696420646966666963756c747952656c617920626c6f636b206661696c65643a20626c6f636b20616c72656164792072656c617965644f776e61626c653a206e6577206f776e657220697320746865207a65726f2061646472657373496e76616c696420536574436865636b706f696e742066756e6374696f6e2063616c6c20696e707574206461746152656c617920626c6f636b206173206120636865636b706f696e74206661696c65643a20696e76616c696420506f5752656c617920626c6f636b206661696c65643a20696e76616c696420626c6f636b20626c6f636b4865696768744d617846696e616c697a6520626c6f636b206661696c65643a206e6f7420656e6f75676820636f6e6669726d6174696f6e7346696e616c697a6520626c6f636b206661696c65643a20626c6f636b206e6f742072656c617965642079657452656c617920626c6f636b206173206120636865636b706f696e74206661696c65643a20756e70726f76656e20536574436865636b706f696e7420547846696e616c697a6520626c6f636b206661696c65643a20626c6f636b206973206e6f742062656c6f6e6720746f206c6f6e6765737420636861696e46696e616c697a6520626c6f636b206661696c65643a20626c6f636b20616c72656164792066696e616c697a656452656c617920626c6f636b206661696c65643a20696e76616c69642074696d657374616d70426c6f636b20686173206265656e20616c72656164792072656c61796564206173206120636865636b706f696e74206265666f7265536574436865636b706f696e742875696e743235362c627974657333322c627974657333322c75696e7436342c75696e74385b5d2c627974657333325b5d2c627974657333325b5d2952656c617920626c6f636b206661696c65643a20706172656e7420626c6f636b206e6f742072656c61796564207965745365742066696e616c69747920636f6e6669726d6174696f6e73206661696c65643a20696e76616c69642076616c75654661696c656420746f2063616c6c207072652d636f6d70696c656420636f6e747261637420766572696679457468617368a265627a7a72315820c9ac8ed5907d6dc8a8f7130b1daa18ac9d93329efa9593fa61e5d55b1aac0b7664736f6c634300050e0032","compiler":{"name":"solc","version":"0.5.14+commit.01f1aaa4.Emscripten.clang"},"compileTime":1578561131059}