{"contractName":"RopstenNtyRelay","abi":[{"inputs":[{"internalType":"uint256","name":"_finalityConfirms","type":"uint256"}],"payable":false,"stateMutability":"nonpayable","type":"constructor"},{"constant":true,"inputs":[{"internalType":"uint256","name":"","type":"uint256"}],"name":"blocks","outputs":[{"internalType":"uint256","name":"parentHash","type":"uint256"},{"internalType":"uint256","name":"stateRoot","type":"uint256"},{"internalType":"uint256","name":"txRoot","type":"uint256"},{"internalType":"uint256","name":"receiptsRoot","type":"uint256"},{"internalType":"uint256","name":"number","type":"uint256"},{"internalType":"uint256","name":"difficulty","type":"uint256"},{"internalType":"uint256","name":"time","type":"uint256"},{"internalType":"uint256","name":"hash","type":"uint256"},{"internalType":"uint256","name":"linkCheckpoint","type":"uint256"},{"internalType":"uint256","name":"accumulativeDiff","type":"uint256"}],"payable":false,"stateMutability":"view","type":"function"},{"constant":true,"inputs":[],"name":"checkpointContractInfo","outputs":[{"internalType":"address","name":"contractAddress","type":"address"}],"payable":false,"stateMutability":"view","type":"function"},{"constant":true,"inputs":[],"name":"finalityConfirms","outputs":[{"internalType":"uint256","name":"","type":"uint256"}],"payable":false,"stateMutability":"view","type":"function"},{"constant":false,"inputs":[{"internalType":"uint256","name":"_blockHash","type":"uint256"}],"name":"finalizeBlock","outputs":[{"internalType":"bool","name":"","type":"bool"}],"payable":false,"stateMutability":"nonpayable","type":"function"},{"constant":true,"inputs":[],"name":"firstBlock","outputs":[{"internalType":"uint256","name":"","type":"uint256"}],"payable":false,"stateMutability":"view","type":"function"},{"constant":true,"inputs":[{"internalType":"uint256","name":"","type":"uint256"}],"name":"hasBlock","outputs":[{"internalType":"bool","name":"","type":"bool"}],"payable":false,"stateMutability":"view","type":"function"},{"constant":true,"inputs":[{"internalType":"uint256","name":"","type":"uint256"}],"name":"hasBlockHeight","outputs":[{"internalType":"bool","name":"","type":"bool"}],"payable":false,"stateMutability":"view","type":"function"},{"constant":true,"inputs":[{"internalType":"uint256","name":"","type":"uint256"}],"name":"hasCheckpoint","outputs":[{"internalType":"bool","name":"","type":"bool"}],"payable":false,"stateMutability":"view","type":"function"},{"constant":true,"inputs":[{"internalType":"uint256","name":"","type":"uint256"}],"name":"hasCpBlockByHeight","outputs":[{"internalType":"bool","name":"","type":"bool"}],"payable":false,"stateMutability":"view","type":"function"},{"constant":true,"inputs":[{"internalType":"uint256","name":"","type":"uint256"}],"name":"hasFinalizedBlock","outputs":[{"internalType":"bool","name":"","type":"bool"}],"payable":false,"stateMutability":"view","type":"function"},{"constant":false,"inputs":[{"internalType":"uint256","name":"_finalityConfirms","type":"uint256"}],"name":"initialize","outputs":[],"payable":false,"stateMutability":"nonpayable","type":"function"},{"constant":true,"inputs":[],"name":"latestCheckpoint","outputs":[{"internalType":"uint256","name":"","type":"uint256"}],"payable":false,"stateMutability":"view","type":"function"},{"constant":true,"inputs":[{"internalType":"uint256","name":"","type":"uint256"}],"name":"longestBranchHead","outputs":[{"internalType":"uint256","name":"","type":"uint256"}],"payable":false,"stateMutability":"view","type":"function"},{"constant":true,"inputs":[],"name":"maxBlockHeight","outputs":[{"internalType":"uint256","name":"","type":"uint256"}],"payable":false,"stateMutability":"view","type":"function"},{"constant":false,"inputs":[{"internalType":"bytes","name":"_rlpHeader","type":"bytes"}],"name":"relayBlock","outputs":[{"internalType":"bool","name":"","type":"bool"}],"payable":true,"stateMutability":"payable","type":"function"},{"constant":false,"inputs":[{"internalType":"bytes","name":"_rlpHeader","type":"bytes"},{"internalType":"bytes","name":"_rlpSetCheckpointTx","type":"bytes"},{"internalType":"bytes","name":"_rlpSetCheckpointTxIndex","type":"bytes"},{"internalType":"bytes","name":"_rlpSetCheckpointTxProof","type":"bytes"}],"name":"relayCheckpointBlock","outputs":[{"internalType":"bool","name":"","type":"bool"}],"payable":true,"stateMutability":"payable","type":"function"},{"constant":true,"inputs":[{"internalType":"bytes","name":"_rlpTx","type":"bytes"},{"internalType":"bytes","name":"_rlpPath","type":"bytes"},{"internalType":"bytes","name":"_rlpParentNodes","type":"bytes"},{"internalType":"uint256","name":"_blockHash","type":"uint256"}],"name":"verifyTx","outputs":[{"internalType":"bool","name":"","type":"bool"}],"payable":false,"stateMutability":"view","type":"function"},{"constant":true,"inputs":[],"name":"version","outputs":[{"internalType":"string","name":"","type":"string"}],"payable":false,"stateMutability":"view","type":"function"}],"bytecode":"0x60806040523480156200001157600080fd5b5060405162004f7b38038062004f7b833981810160405260208110156200003757600080fd5b8101908080519060200190929190505050806200005a816200006260201b60201c565b50506200078b565b600e60009054906101000a900460ff16156200007d57600080fd5b80600d8190555062000094620000c260201b60201c565b620000a4620002d860201b60201c565b6001600e60006101000a81548160ff02191690831515021790555050565b620000cc62000738565b620000dc620003c660201b60201c565b90508060e0015160008190555080600160008360e001518152602001908152602001600020600082015181600001556020820151816001015560408201518160020155606082015181600301556080820151816004015560a0820151816005015560c0820151816006015560e08201518160070155610100820151816008015561012082015181600901559050506001600260008360e00151815260200190815260200160002060006101000a81548160ff0219169083151502179055506001600360008360e00151815260200190815260200160002060006101000a81548160ff02191690831515021790555060046000826080015181526020019081526020016000208160e0015190806001815401808255809150509060018203906000526020600020016000909192909190915055506001600560008360800151815260200190815260200160002060006101000a81548160ff02191690831515021790555080608001516006819055508060e00151600760008360e001518152602001908152602001600020819055506001600860008360e00151815260200190815260200160002060006101000a81548160ff0219169083151502179055506001600960008360800151815260200190815260200160002060006101000a81548160ff0219169083151502179055508060e00151600a8190555050565b60006060620002ec6200051460201b60201c565b9150915081600b60000160006101000a81548173ffffffffffffffffffffffffffffffffffffffff021916908373ffffffffffffffffffffffffffffffffffffffff16021790555060008090505b8151811015620003c1576001600b60010160008484815181106200035a57fe5b602002602001015173ffffffffffffffffffffffffffffffffffffffff1673ffffffffffffffffffffffffffffffffffffffff16815260200190815260200160002060006101000a81548160ff02191690831515021790555080806001019150506200033a565b505050565b620003d062000738565b620003da62000738565b6040518061014001604052807f65d283e7a4ea14e86404c9ad855d59b4a49a9ae4602dd80857c130a8a57de12d81526020017f87c377f10bfda590c8e3bfa6a6cafeb9736a251439766196ac508cfcbc795a3281526020017ff4cdf600a8b159e94c49f974ea2da5f05516098fab03dd231469e63982a2ab6e81526020017fd8e77b10e522f5f2c1165c74baa0054fca5e90960cdf26b99892106f06f100f781526020016261f3828152602001637eb486358152602001635d8321f181526020017fa73ab1a315660100b28ad2121ce7f9df8cd76d250048e5d0ff2f0f458573a1b881526020017fa73ab1a315660100b28ad2121ce7f9df8cd76d250048e5d0ff2f0f458573a1b881526020017feeeeeeeeeeeeeeeeeeeeeeeeeeeeeeeeeeeeeeeeeeeeeeeeeeeeeeeeef50e27081525090508091505090565b6000606073ef79475013f154e6a65b54cb2742867791bf0b8491506005604051908082528060200260200182016040528015620005605781602001602082028038833980820191505090505b5090507332162f3581e88a5f62e8a61892b42c46e2c18f7b816000815181106200058657fe5b602002602001019073ffffffffffffffffffffffffffffffffffffffff16908173ffffffffffffffffffffffffffffffffffffffff16815250507378d1ad571a1a09d60d9bbf25894b44e4c885959581600181518110620005e357fe5b602002602001019073ffffffffffffffffffffffffffffffffffffffff16908173ffffffffffffffffffffffffffffffffffffffff168152505073286834935f4a8cfb4ff4c77d5770c2775ae2b0e7816002815181106200064057fe5b602002602001019073ffffffffffffffffffffffffffffffffffffffff16908173ffffffffffffffffffffffffffffffffffffffff168152505073b86e2b0ab5a4b1373e40c51a7c712c70ba2f9f8e816003815181106200069d57fe5b602002602001019073ffffffffffffffffffffffffffffffffffffffff16908173ffffffffffffffffffffffffffffffffffffffff1681525050730df8fa387c602ae62559cc4afa4972a7045d670781600481518110620006fa57fe5b602002602001019073ffffffffffffffffffffffffffffffffffffffff16908173ffffffffffffffffffffffffffffffffffffffff16815250509091565b604051806101400160405280600081526020016000815260200160008152602001600081526020016000815260200160008152602001600081526020016000815260200160008152602001600081525090565b6147e0806200079b6000396000f3fe6080604052600436106101095760003560e01c80638d6e193e11610095578063c4dd6d0311610064578063c4dd6d03146109bc578063ed9a37eb146109e7578063f25b3f9914610a12578063fc32c0d814610aa0578063fe4b84df14610af357610109565b80638d6e193e1461089c578063907c0f92146108ef57806392947cc01461091a578063b980e3481461096957610109565b806326ddabe7116100dc57806326ddabe7146103f75780634b804d7f1461068f5780634f4dfcfd146106e657806354fd4d50146107b95780638476c2781461084957610109565b8063020d15f71461010e578063089a22d914610326578063114c113714610379578063231b0268146103cc575b600080fd5b34801561011a57600080fd5b5061030c6004803603608081101561013157600080fd5b810190808035906020019064010000000081111561014e57600080fd5b82018360208201111561016057600080fd5b8035906020019184600183028401116401000000008311171561018257600080fd5b91908080601f016020809104026020016040519081016040528093929190818152602001838380828437600081840152601f19601f820116905080830192505050505050509192919290803590602001906401000000008111156101e557600080fd5b8201836020820111156101f757600080fd5b8035906020019184600183028401116401000000008311171561021957600080fd5b91908080601f016020809104026020016040519081016040528093929190818152602001838380828437600081840152601f19601f8201169050808301925050505050505091929192908035906020019064010000000081111561027c57600080fd5b82018360208201111561028e57600080fd5b803590602001918460018302840111640100000000831117156102b057600080fd5b91908080601f016020809104026020016040519081016040528093929190818152602001838380828437600081840152601f19601f82011690508083019250505050505050919291929080359060200190929190505050610b2e565b604051808215151515815260200191505060405180910390f35b34801561033257600080fd5b5061035f6004803603602081101561034957600080fd5b8101908080359060200190929190505050610b8e565b604051808215151515815260200191505060405180910390f35b34801561038557600080fd5b506103b26004803603602081101561039c57600080fd5b8101908080359060200190929190505050610bae565b604051808215151515815260200191505060405180910390f35b3480156103d857600080fd5b506103e1611205565b6040518082815260200191505060405180910390f35b6106756004803603608081101561040d57600080fd5b810190808035906020019064010000000081111561042a57600080fd5b82018360208201111561043c57600080fd5b8035906020019184600183028401116401000000008311171561045e57600080fd5b91908080601f016020809104026020016040519081016040528093929190818152602001838380828437600081840152601f19601f820116905080830192505050505050509192919290803590602001906401000000008111156104c157600080fd5b8201836020820111156104d357600080fd5b803590602001918460018302840111640100000000831117156104f557600080fd5b91908080601f016020809104026020016040519081016040528093929190818152602001838380828437600081840152601f19601f8201169050808301925050505050505091929192908035906020019064010000000081111561055857600080fd5b82018360208201111561056a57600080fd5b8035906020019184600183028401116401000000008311171561058c57600080fd5b91908080601f016020809104026020016040519081016040528093929190818152602001838380828437600081840152601f19601f820116905080830192505050505050509192919290803590602001906401000000008111156105ef57600080fd5b82018360208201111561060157600080fd5b8035906020019184600183028401116401000000008311171561062357600080fd5b91908080601f016020809104026020016040519081016040528093929190818152602001838380828437600081840152601f19601f82011690508083019250505050505050919291929050505061120b565b604051808215151515815260200191505060405180910390f35b34801561069b57600080fd5b506106a461180c565b604051808273ffffffffffffffffffffffffffffffffffffffff1673ffffffffffffffffffffffffffffffffffffffff16815260200191505060405180910390f35b61079f600480360360208110156106fc57600080fd5b810190808035906020019064010000000081111561071957600080fd5b82018360208201111561072b57600080fd5b8035906020019184600183028401116401000000008311171561074d57600080fd5b91908080601f016020809104026020016040519081016040528093929190818152602001838380828437600081840152601f19601f820116905080830192505050505050509192919290505050611838565b604051808215151515815260200191505060405180910390f35b3480156107c557600080fd5b506107ce611dc8565b6040518080602001828103825283818151815260200191508051906020019080838360005b8381101561080e5780820151818401526020810190506107f3565b50505050905090810190601f16801561083b5780820380516001836020036101000a031916815260200191505b509250505060405180910390f35b34801561085557600080fd5b506108826004803603602081101561086c57600080fd5b8101908080359060200190929190505050611e01565b604051808215151515815260200191505060405180910390f35b3480156108a857600080fd5b506108d5600480360360208110156108bf57600080fd5b8101908080359060200190929190505050611e21565b604051808215151515815260200191505060405180910390f35b3480156108fb57600080fd5b50610904611e41565b6040518082815260200191505060405180910390f35b34801561092657600080fd5b506109536004803603602081101561093d57600080fd5b8101908080359060200190929190505050611e47565b6040518082815260200191505060405180910390f35b34801561097557600080fd5b506109a26004803603602081101561098c57600080fd5b8101908080359060200190929190505050611e5f565b604051808215151515815260200191505060405180910390f35b3480156109c857600080fd5b506109d1611e7f565b6040518082815260200191505060405180910390f35b3480156109f357600080fd5b506109fc611e85565b6040518082815260200191505060405180910390f35b348015610a1e57600080fd5b50610a4b60048036036020811015610a3557600080fd5b8101908080359060200190929190505050611e8b565b604051808b81526020018a81526020018981526020018881526020018781526020018681526020018581526020018481526020018381526020018281526020019a505050505050505050505060405180910390f35b348015610aac57600080fd5b50610ad960048036036020811015610ac357600080fd5b8101908080359060200190929190505050611edf565b604051808215151515815260200191505060405180910390f35b348015610aff57600080fd5b50610b2c60048036036020811015610b1657600080fd5b8101908080359060200190929190505050611eff565b005b60006002600083815260200190815260200160002060009054906101000a900460ff16610b5e5760009050610b86565b610b83858585600160008781526020019081526020016000206002015460001b611f4e565b90505b949350505050565b60056020528060005260406000206000915054906101000a900460ff1681565b60006002600083815260200190815260200160002060009054906101000a900460ff16610c26576040517f08c379a000000000000000000000000000000000000000000000000000000000815260040180806020018281038252602c8152602001806145d6602c913960400191505060405180910390fd5b6003600083815260200190815260200160002060009054906101000a900460ff1615610c9d576040517f08c379a000000000000000000000000000000000000000000000000000000000815260040180806020018281038252602e81526020018061467a602e913960400191505060405180910390fd5b610ca561432c565b6001600084815260200190815260200160002060405180610140016040529081600082015481526020016001820154815260200160028201548152602001600382015481526020016004820154815260200160058201548152602001600682015481526020016007820154815260200160088201548152602001600982015481525050905060006007600083610100015181526020019081526020016000205490508160800151600160008381526020019081526020016000206004015411610db9576040517f08c379a000000000000000000000000000000000000000000000000000000000815260040180806020018281038252603b81526020018061463f603b913960400191505060405180910390fd5b600081905060008090506000600185608001510190505b60016000858152602001908152602001600020600401548111610f01576009600082815260200190815260200160002060009054906101000a900460ff1615610ef457606060046000838152602001908152602001600020805480602002602001604051908101604052809291908181526020018280548015610e7257602002820191906000526020600020905b815481526020019060010190808311610e5e575b5050505050905060008090505b8151811015610eed5760086000838381518110610e9857fe5b6020026020010151815260200190815260200160002060009054906101000a900460ff1615610ee057818181518110610ecd57fe5b6020026020010151945060019350610eed565b8080600101915050610e7f565b5050610f01565b8080600101915050610dd0565b50600084608001516001600085815260200190815260200160002060040154039050600080905060008090506000600160008781526020019081526020016000206007015490505b83821015611030576002600082815260200190815260200160002060009054906101000a900460ff16610fc7576040517f08c379a000000000000000000000000000000000000000000000000000000000815260040180806020018281038252603b81526020018061463f603b913960400191505060405180910390fd5b82158015610ff257506003600082815260200190815260200160002060009054906101000a900460ff165b15610ffc57600192505b6001600082815260200190815260200160002060000154905061102960018361221e90919063ffffffff16565b9150610f49565b8981148015611051575084806110435750825b806110505750600d548410155b5b6110a6576040517f08c379a000000000000000000000000000000000000000000000000000000000815260040180806020018281038252602f8152602001806145a7602f913960400191505060405180910390fd5b6001600360008c815260200190815260200160002060006101000a81548160ff0219169083151502179055506060600460008a60800151815260200190815260200160002080548060200260200160405190810160405280929190818152602001828054801561113557602002820191906000526020600020905b815481526020019060010190808311611121575b50505050509050600092505b80518310156111f3578a81848151811061115757fe5b60200260200101511415801561119d57506003600082858151811061117857fe5b6020026020010151815260200190815260200160002060009054906101000a900460ff165b156111e6576000600360008386815181106111b457fe5b6020026020010151815260200190815260200160002060006101000a81548160ff0219169083151502179055506111f3565b8280600101935050611141565b60019950505050505050505050919050565b60005481565b600080611217866122a6565b90506008600082815260200190815260200160002060009054906101000a900460ff1615611290576040517f08c379a00000000000000000000000000000000000000000000000000000000081526004018080602001828103825260358152602001806146cd6035913960400191505060405180910390fd5b61129861437f565b6112a1876122ba565b905060006112ae886125a9565b905060006112d28361010001518460e00151856101c00151866101a0015186612678565b90508061132a576040517f08c379a000000000000000000000000000000000000000000000000000000000815260040180806020018281038252602f815260200180614578602f913960400191505060405180910390fd5b600061133f898989876080015160001b611f4e565b905080611397576040517f08c379a000000000000000000000000000000000000000000000000000000000815260040180806020018281038252603d815260200180614602603d913960400191505060405180910390fd5b61139f61440b565b6113a88a61275a565b90506113b98160a00151600b612956565b61140e576040517f08c379a000000000000000000000000000000000000000000000000000000000815260040180806020018281038252602e81526020018061454a602e913960400191505060405180910390fd5b61141661432c565b6040518061014001604052808760000151815260200187606001518152602001876080015181526020018760a00151815260200187610100015181526020018760e00151815260200187610160015181526020018881526020018881526020016114ae7feeeeeeeeeeeeeeeeeeeeeeeeeeeeeeeeeeeeeeeeeeeeeeeeeeeeeeeeeeeeeeee89610100015161221e90919063ffffffff16565b81525090508060016000898152602001908152602001600020600082015181600001556020820151816001015560408201518160020155606082015181600301556080820151816004015560a0820151816005015560c0820151816006015560e082015181600701556101008201518160080155610120820151816009015590505060016002600089815260200190815260200160002060006101000a81548160ff02191690831515021790555060016003600089815260200190815260200160002060006101000a81548160ff02191690831515021790555060016008600089815260200190815260200160002060006101000a81548160ff021916908315150217905550600160096000600160008b815260200190815260200160002060040154815260200190815260200160002060006101000a81548160ff02191690831515021790555060016000600a54815260200190815260200160002060040154600160008981526020019081526020016000206004015411156116345786600a819055505b600460008761010001518152602001908152602001600020879080600181540180825580915050906001820390600052602060002001600090919290919091505550600160056000886101000151815260200190815260200160002060006101000a81548160ff02191690831515021790555060065486610100015111156116c3578561010001516006819055505b606060046000600160008b815260200190815260200160002060040154815260200190815260200160002080548060200260200160405190810160405280929190818152602001828054801561173857602002820191906000526020600020905b815481526020019060010190808311611724575b5050505050905060008090505b81518110156117f7578882828151811061175b57fe5b6020026020010151141580156117a157506003600083838151811061177c57fe5b6020026020010151815260200190815260200160002060009054906101000a900460ff165b156117ea576000600360008484815181106117b857fe5b6020026020010151815260200190815260200160002060006101000a81548160ff0219169083151502179055506117f7565b8080600101915050611745565b50600198505050505050505050949350505050565b600b8060000160009054906101000a900473ffffffffffffffffffffffffffffffffffffffff16905081565b600080611844836122a6565b90506002600082815260200190815260200160002060009054906101000a900460ff16156118bd576040517f08c379a00000000000000000000000000000000000000000000000000000000081526004018080602001828103825260298152602001806145216029913960400191505060405180910390fd5b6118c561437f565b6118ce846122ba565b9050600260008260000151815260200190815260200160002060009054906101000a900460ff1661194a576040517f08c379a000000000000000000000000000000000000000000000000000000000815260040180806020018281038252603081526020018061474b6030913960400191505060405180910390fd5b6119776001806000846000015181526020019081526020016000206004015461221e90919063ffffffff16565b816101000151146119d3576040517f08c379a00000000000000000000000000000000000000000000000000000000081526004018080602001828103825260308152602001806144cb6030913960400191505060405180910390fd5b60016000826000015181526020019081526020016000206006015481610160015111611a4a576040517f08c379a00000000000000000000000000000000000000000000000000000000081526004018080602001828103825260258152602001806146a86025913960400191505060405180910390fd5b611a728160e00151600160008460000151815260200190815260200160002060050154612ca6565b611ac7576040517f08c379a00000000000000000000000000000000000000000000000000000000081526004018080602001828103825260268152602001806144fb6026913960400191505060405180910390fd5b6000611ad2856125a9565b90506000611af68361010001518460e00151856101c00151866101a0015186612678565b905080611b6b576040517f08c379a000000000000000000000000000000000000000000000000000000000815260040180806020018281038252601f8152602001807f52656c617920626c6f636b206661696c65643a20696e76616c696420506f570081525060200191505060405180910390fd5b611b7361432c565b6040518061014001604052808560000151815260200185606001518152602001856080015181526020018560a00151815260200185610100015181526020018560e00151815260200185610160015181526020018681526020016001600087600001518152602001908152602001600020600801548152602001611c1e8660e0015160016000896000015181526020019081526020016000206009015461221e90919063ffffffff16565b81525090508060016000878152602001908152602001600020600082015181600001556020820151816001015560408201518160020155606082015181600301556080820151816004015560a0820151816005015560c0820151816006015560e082015181600701556101008201518160080155610120820151816009015590505060016002600087815260200190815260200160002060006101000a81548160ff021916908315150217905550600460008561010001518152602001908152602001600020859080600181540180825580915050906001820390600052602060002001600090919290919091505550600160056000866101000151815260200190815260200160002060006101000a81548160ff0219169083151502179055506006548461010001511115611d5b578361010001516006819055505b600060076000836101000151815260200190815260200160002054905060016000828152602001908152602001600020600901548261012001511115611db95785600760008461010001518152602001908152602001600020819055505b60019650505050505050919050565b6040518060400160405280600581526020017f312e302e3000000000000000000000000000000000000000000000000000000081525081565b60086020528060005260406000206000915054906101000a900460ff1681565b60036020528060005260406000206000915054906101000a900460ff1681565b600a5481565b60076020528060005260406000206000915090505481565b60096020528060005260406000206000915054906101000a900460ff1681565b600d5481565b60065481565b6001602052806000526040600020600091509050806000015490806001015490806002015490806003015490806004015490806005015490806006015490806007015490806008015490806009015490508a565b60026020528060005260406000206000915054906101000a900460ff1681565b600e60009054906101000a900460ff1615611f1957600080fd5b80600d81905550611f28612cd4565b611f30612ee0565b6001600e60006101000a81548160ff02191690831515021790555050565b6000611f58614476565b611f6184612fc3565b90506060611f6e82612ff1565b9050606080600086905060008090506060611f888b6130ce565b9050600081511415611fa4576000975050505050505050612216565b60008090505b865181101561220d578151831115611fcd57600098505050505050505050612216565b611fe9878281518110611fdc57fe5b6020026020010151613255565b95508580519060200120841461200a57600098505050505050505050612216565b61202687828151811061201957fe5b6020026020010151612ff1565b94506011855114156120f857815183141561208f578c805190602001206120608660108151811061205357fe5b60200260200101516132cb565b80519060200120141561207e57600198505050505050505050612216565b600098505050505050505050612216565b600082848151811061209d57fe5b602001015160f81c60f81b60f81c905060108160ff1611156120cb5760009950505050505050505050612216565b6120ea868260ff16815181106120dd57fe5b6020026020010151613357565b945060018401935050612200565b6002855114156121ee576121296121228660008151811061211557fe5b6020026020010151613255565b8385613373565b83019250815183141561218a578c8051906020012061215b8660018151811061214e57fe5b60200260200101516132cb565b80519060200120141561217957600198505050505050505050612216565b600098505050505050505050612216565b60006121b36121ac8760008151811061219f57fe5b6020026020010151613255565b8486613373565b14156121ca57600098505050505050505050612216565b6121e7856001815181106121da57fe5b6020026020010151613357565b93506121ff565b600098505050505050505050612216565b5b8080600101915050611faa565b50505050505050505b949350505050565b60008082840190508381101561229c576040517f08c379a000000000000000000000000000000000000000000000000000000000815260040180806020018281038252601b8152602001807f536166654d6174683a206164646974696f6e206f766572666c6f77000000000081525060200191505060405180910390fd5b8091505092915050565b6000818051906020012060001c9050919050565b6122c261437f565b6122ca614490565b6122db6122d684612fc3565b613466565b905060005b6122e9826134b4565b1561259f57600081141561231657612308612303836134de565b613538565b836000018181525050612592565b600181141561233e5761233061232b836134de565b613538565b836020018181525050612591565b600281141561239457612358612353836134de565b6135a9565b836040019073ffffffffffffffffffffffffffffffffffffffff16908173ffffffffffffffffffffffffffffffffffffffff1681525050612590565b60038114156123bc576123ae6123a9836134de565b613538565b83606001818152505061258f565b60048114156123e4576123d66123d1836134de565b613538565b83608001818152505061258e565b600581141561240c576123fe6123f9836134de565b613538565b8360a001818152505061258d565b600681141561243357612426612421836134de565b6132cb565b8360c0018190525061258c565b600781141561245b5761244d612448836134de565b613538565b8360e001818152505061258b565b600881141561248457612475612470836134de565b613538565b8361010001818152505061258a565b60098114156124ad5761249e612499836134de565b613538565b83610120018181525050612589565b600a8114156124d6576124c76124c2836134de565b613538565b83610140018181525050612588565b600b8114156124ff576124f06124eb836134de565b613538565b83610160018181525050612587565b600c81141561252757612519612514836134de565b6132cb565b836101800181905250612586565b600d8114156125505761254161253c836134de565b613538565b836101a0018181525050612585565b600e8114156125795761256a612565836134de565b613538565b836101c0018181525050612584565b612582826134de565b505b5b5b5b5b5b5b5b5b5b5b5b5b5b5b80806001019150506122e0565b8292505050919050565b60006060600d6040519080825280602002602001820160405280156125e257816020015b60608152602001906001900390816125cd5790505b5090506125ed614490565b6125fe6125f985612fc3565b613466565b905060008090505b61260f826134b4565b801561261b5750600d81105b156126555761263161262c836134de565b613255565b83828151811061263d57fe5b60200260200101819052508080600101915050612606565b6060612660846135cc565b9050808051906020012060001c945050505050919050565b6000606086868686866040516020018086815260200185815260200184815260200183815260200182815260200195505050505050604051602081830303815290604052905060008151905060006001905060008090506040516020818560208801600060fe600019f16126eb57600092505b805191505081612746576040517f08c379a000000000000000000000000000000000000000000000000000000000815260040180806020018281038252603181526020018061477b6031913960400191505060405180910390fd5b600081141594505050505095945050505050565b61276261440b565b61276a614490565b61277b61277684612fc3565b613466565b905060005b612789826134b4565b1561294c5760008114156127b6576127a86127a3836134de565b613538565b83600001818152505061293f565b60018114156127de576127d06127cb836134de565b613538565b83602001818152505061293e565b6002811415612806576127f86127f3836134de565b613538565b83604001818152505061293d565b600381141561285c5761282061281b836134de565b6135a9565b836060019073ffffffffffffffffffffffffffffffffffffffff16908173ffffffffffffffffffffffffffffffffffffffff168152505061293c565b600481141561288457612876612871836134de565b613538565b83608001818152505061293b565b60058114156128ab5761289e612899836134de565b6132cb565b8360a0018190525061293a565b60068114156128db576128c56128c0836134de565b613538565b8360c0019060ff16908160ff1681525050612939565b6007811415612903576128f56128f0836134de565b613357565b8360e0018181525050612938565b600881141561292c5761291d612918836134de565b613357565b83610100018181525050612937565b612935826134de565b505b5b5b5b5b5b5b5b5b8080600101915050612780565b8292505050919050565b600080600080600080606080606061296d8b6135f7565b809850819950829a50839b50849c50859d50869e50879f505050505050505050604051808061470260499139604901905060405180910390207bffffffffffffffffffffffffffffffffffffffffffffffffffffffff1916887bffffffffffffffffffffffffffffffffffffffffffffffffffffffff1916146129fb57600098505050505050505050612ca0565b81518351141580612a0e57508051835114155b15612a2457600098505050505050505050612ca0565b6000601960f81b600060f81b8c60000160009054906101000a900473ffffffffffffffffffffffffffffffffffffffff16878960405160200180867effffffffffffffffffffffffffffffffffffffffffffffffffffffffffffff19167effffffffffffffffffffffffffffffffffffffffffffffffffffffffffffff19168152600101857effffffffffffffffffffffffffffffffffffffffffffffffffffffffffffff19167effffffffffffffffffffffffffffffffffffffffffffffffffffffffffffff191681526001018473ffffffffffffffffffffffffffffffffffffffff1673ffffffffffffffffffffffffffffffffffffffff1660601b81526014018367ffffffffffffffff1667ffffffffffffffff1660c01b81526008018281526020019550505050505060405160208183030381529060405280519060200120905060008090505b8451811015612c91576000600183878481518110612b8957fe5b6020026020010151878581518110612b9d57fe5b6020026020010151878681518110612bb157fe5b602002602001015160405160008152602001604052604051808581526020018460ff1660ff1681526020018381526020018281526020019450505050506020604051602081039080840390855afa158015612c10573d6000803e3d6000fd5b5050506020604051035190508c60010160008273ffffffffffffffffffffffffffffffffffffffff1673ffffffffffffffffffffffffffffffffffffffff16815260200190815260200160002060009054906101000a900460ff16612c835760009b505050505050505050505050612ca0565b508080600101915050612b6f565b50600199505050505050505050505b92915050565b6000612cc960636127108481612cb857fe5b04028361379190919063ffffffff16565b831015905092915050565b612cdc61432c565b612ce46137db565b90508060e0015160008190555080600160008360e001518152602001908152602001600020600082015181600001556020820151816001015560408201518160020155606082015181600301556080820151816004015560a0820151816005015560c0820151816006015560e08201518160070155610100820151816008015561012082015181600901559050506001600260008360e00151815260200190815260200160002060006101000a81548160ff0219169083151502179055506001600360008360e00151815260200190815260200160002060006101000a81548160ff02191690831515021790555060046000826080015181526020019081526020016000208160e0015190806001815401808255809150509060018203906000526020600020016000909192909190915055506001600560008360800151815260200190815260200160002060006101000a81548160ff02191690831515021790555080608001516006819055508060e00151600760008360e001518152602001908152602001600020819055506001600860008360e00151815260200190815260200160002060006101000a81548160ff0219169083151502179055506001600960008360800151815260200190815260200160002060006101000a81548160ff0219169083151502179055508060e00151600a8190555050565b60006060612eec613925565b9150915081600b60000160006101000a81548173ffffffffffffffffffffffffffffffffffffffff021916908373ffffffffffffffffffffffffffffffffffffffff16021790555060008090505b8151811015612fbe576001600b6001016000848481518110612f5857fe5b602002602001015173ffffffffffffffffffffffffffffffffffffffff1673ffffffffffffffffffffffffffffffffffffffff16815260200190815260200160002060006101000a81548160ff0219169083151502179055508080600101915050612f3a565b505050565b612fcb614476565b600060208301905060405180604001604052808451815260200182815250915050919050565b6060612ffc82613b43565b61300557600080fd5b600061301083613b91565b905060608160405190808252806020026020018201604052801561304e57816020015b61303b6144b0565b8152602001906001900390816130335790505b50905060006130608560200151613c02565b8560200151019050600080600090505b848110156130c15761308183613c8b565b91506040518060400160405280838152602001848152508482815181106130a457fe5b602002602001018190525081830192508080600101915050613070565b5082945050505050919050565b60608060008351111561324c576000806130e9600086613d43565b60f81c905060018160ff161480613103575060038160ff16145b1561319b5760016002865102036040519080825280601f01601f1916602001820160405280156131425781602001600182028038833980820191505090505b5092506000613152600187613d43565b9050808460008151811061316257fe5b60200101907effffffffffffffffffffffffffffffffffffffffffffffffffffffffffffff1916908160001a90535060019250506131dc565b600280865102036040519080825280601f01601f1916602001820160405280156131d45781602001600182028038833980820191505090505b509250600091505b60008260ff1690505b83518110156132485761320060028460ff1683030187613d43565b84828151811061320c57fe5b60200101907effffffffffffffffffffffffffffffffffffffffffffffffffffffffffffff1916908160001a90535080806001019150506131e5565b5050505b80915050919050565b60608082600001516040519080825280601f01601f19166020018201604052801561328f5781602001600182028038833980820191505090505b5090506000815114156132a557809150506132c6565b60008160200190506132c08460200151828660000151613dc9565b81925050505b919050565b606060008260000151116132de57600080fd5b60006132ed8360200151613c02565b905060008184600001510390506060816040519080825280601f01601f19166020018201604052801561332f5781602001600182028038833980820191505090505b509050600081602001905061334b848760200151018285613dc9565b81945050505050919050565b600061336c613365836132cb565b6000613e30565b9050919050565b6000806060613381866130ce565b9050606081516040519080825280601f01601f1916602001820160405280156133b95781602001600182028038833980820191505090505b50905060008590505b825186018110156134345760008782815181106133db57fe5b602001015160f81c60f81b90508083888403815181106133f757fe5b60200101907effffffffffffffffffffffffffffffffffffffffffffffffffffffffffffff1916908160001a9053505080806001019150506133c2565b508080519060200120828051906020012014156134545781519250613459565b600092505b8293505050509392505050565b61346e614490565b61347782613b43565b61348057600080fd5b600061348f8360200151613c02565b8360200151019050604051806040016040528084815260200182815250915050919050565b60006134be614476565b826000015190508060000151816020015101836020015110915050919050565b6134e6614476565b6134ef826134b4565b6134f857600080fd5b600082602001519050600061350c82613c8b565b905080820184602001818152505060405180604001604052808281526020018381525092505050919050565b600080826000015111801561355257506021826000015111155b61355b57600080fd5b600061356a8360200151613c02565b9050600081846000015103905060008083866020015101905080519150602083101561359d57826020036101000a820491505b81945050505050919050565b600060158260000151146135bc57600080fd5b6135c582613538565b9050919050565b6060806135d883613ea5565b90506135ef6135e9825160c0613fd3565b82614187565b915050919050565b6000806000806000606080606060008060008060008060208f01519d5060248f0180519d5060208101519c5060408101519b5060608101519a506080810151808201519750602081018201945060a08201519050808201519650602081018201935060c08201519050808201519550602081018201925050508560405190808252806020026020018201604052801561369f5781602001602082028038833980820191505090505b509850846040519080825280602002602001820160405280156136d15781602001602082028038833980820191505090505b509750836040519080825280602002602001820160405280156137035781602001602082028038833980820191505090505b50965060005b8681101561372d5780602002840151816020026020018b0152600181019050613709565b600090505b858110156137565780602002830151816020026020018a0152600181019050613732565b600090505b8481101561377f57806020028201518160200260200189015260018101905061375b565b50505050505050919395975091939597565b60006137d383836040518060400160405280601e81526020017f536166654d6174683a207375627472616374696f6e206f766572666c6f770000815250614211565b905092915050565b6137e361432c565b6137eb61432c565b6040518061014001604052807f65d283e7a4ea14e86404c9ad855d59b4a49a9ae4602dd80857c130a8a57de12d81526020017f87c377f10bfda590c8e3bfa6a6cafeb9736a251439766196ac508cfcbc795a3281526020017ff4cdf600a8b159e94c49f974ea2da5f05516098fab03dd231469e63982a2ab6e81526020017fd8e77b10e522f5f2c1165c74baa0054fca5e90960cdf26b99892106f06f100f781526020016261f3828152602001637eb486358152602001635d8321f181526020017fa73ab1a315660100b28ad2121ce7f9df8cd76d250048e5d0ff2f0f458573a1b881526020017fa73ab1a315660100b28ad2121ce7f9df8cd76d250048e5d0ff2f0f458573a1b881526020017feeeeeeeeeeeeeeeeeeeeeeeeeeeeeeeeeeeeeeeeeeeeeeeeeeeeeeeeef50e27081525090508091505090565b6000606073ef79475013f154e6a65b54cb2742867791bf0b84915060056040519080825280602002602001820160405280156139705781602001602082028038833980820191505090505b5090507332162f3581e88a5f62e8a61892b42c46e2c18f7b8160008151811061399557fe5b602002602001019073ffffffffffffffffffffffffffffffffffffffff16908173ffffffffffffffffffffffffffffffffffffffff16815250507378d1ad571a1a09d60d9bbf25894b44e4c8859595816001815181106139f157fe5b602002602001019073ffffffffffffffffffffffffffffffffffffffff16908173ffffffffffffffffffffffffffffffffffffffff168152505073286834935f4a8cfb4ff4c77d5770c2775ae2b0e781600281518110613a4d57fe5b602002602001019073ffffffffffffffffffffffffffffffffffffffff16908173ffffffffffffffffffffffffffffffffffffffff168152505073b86e2b0ab5a4b1373e40c51a7c712c70ba2f9f8e81600381518110613aa957fe5b602002602001019073ffffffffffffffffffffffffffffffffffffffff16908173ffffffffffffffffffffffffffffffffffffffff1681525050730df8fa387c602ae62559cc4afa4972a7045d670781600481518110613b0557fe5b602002602001019073ffffffffffffffffffffffffffffffffffffffff16908173ffffffffffffffffffffffffffffffffffffffff16815250509091565b60008082600001511415613b5a5760009050613b8c565b60008083602001519050805160001a915060c060ff168260ff161015613b8557600092505050613b8c565b6001925050505b919050565b60008082600001511415613ba85760009050613bfd565b60008090506000613bbc8460200151613c02565b84602001510190506000846000015185602001510190505b80821015613bf657613be582613c8b565b820191508280600101935050613bd4565b8293505050505b919050565b600080825160001a9050608060ff16811015613c22576000915050613c86565b60b860ff16811080613c47575060c060ff168110158015613c46575060f860ff1681105b5b15613c56576001915050613c86565b60c060ff16811015613c765760018060b80360ff16820301915050613c86565b60018060f80360ff168203019150505b919050565b6000806000835160001a9050608060ff16811015613cac5760019150613d39565b60b860ff16811015613cc9576001608060ff168203019150613d38565b60c060ff16811015613cf95760b78103600185019450806020036101000a85510460018201810193505050613d37565b60f860ff16811015613d1657600160c060ff168203019150613d36565b60f78103600185019450806020036101000a855104600182018101935050505b5b5b5b8192505050919050565b60008060028481613d5057fe5b0614613d8c5760108260028581613d6357fe5b0481518110613d6e57fe5b602001015160f81c60f81b60f81c60ff1681613d8657fe5b06613dbe565b60108260028581613d9957fe5b0481518110613da457fe5b602001015160f81c60f81b60f81c60ff1681613dbc57fe5b045b60f81b905092915050565b6000811415613dd757613e2b565b5b602060ff168110613e075782518252602060ff1683019250602060ff1682019150602060ff1681039050613dd8565b6000600182602060ff16036101000a03905080198451168184511681811785525050505b505050565b60008060008090505b6020811015613e9a576008810260ff60f81b8683870181518110613e5957fe5b602001015160f81c60f81b167effffffffffffffffffffffffffffffffffffffffffffffffffffffffffffff1916901c821791508080600101915050613e39565b508091505092915050565b6060600082511415613eed5760006040519080825280601f01601f191660200182016040528015613ee55781602001600182028038833980820191505090505b509050613fce565b600080600090505b8351811015613f2457838181518110613f0a57fe5b602002602001015151820191508080600101915050613ef5565b6060826040519080825280601f01601f191660200182016040528015613f595781602001600182028038833980820191505090505b5090506000602082019050600092505b8551831015613fc6576060868481518110613f8057fe5b602002602001015190506000602082019050613f9e838284516142d1565b878581518110613faa57fe5b6020026020010151518301925050508280600101935050613f69565b819450505050505b919050565b606080603884101561405d5760016040519080825280601f01601f1916602001820160405280156140135781602001600182028038833980820191505090505b50905082840160f81b8160008151811061402957fe5b60200101907effffffffffffffffffffffffffffffffffffffffffffffffffffffffffffff1916908160001a90535061417d565b600080600190505b600081878161407057fe5b041461408a57818060010192505061010081029050614065565b600182016040519080825280601f01601f1916602001820160405280156140c05781602001600182028038833980820191505090505b50925060378583010160f81b836000815181106140d957fe5b60200101907effffffffffffffffffffffffffffffffffffffffffffffffffffffffffffff1916908160001a905350600190505b81811161417a576101008183036101000a878161412657fe5b048161412e57fe5b0660f81b83828151811061413e57fe5b60200101907effffffffffffffffffffffffffffffffffffffffffffffffffffffffffffff1916908160001a905350808060010191505061410d565b50505b8091505092915050565b6060806040519050835180825260208201818101602087015b818310156141bd57805183526020830192506020810190506141a0565b50855192508351830184528091508282019050602086015b818310156141f257805183526020830192506020810190506141d5565b50601f19601f8851850115830101166040525050508091505092915050565b60008383111582906142be576040517f08c379a00000000000000000000000000000000000000000000000000000000081526004018080602001828103825283818151815260200191508051906020019080838360005b83811015614283578082015181840152602081019050614268565b50505050905090810190601f1680156142b05780820380516001836020036101000a031916815260200191505b509250505060405180910390fd5b5060008385039050809150509392505050565b6000839050600083905060008390505b6020811061430457815183526020830192506020820191506020810390506142e1565b60006001826020036101000a0390508019835116818551168181178652505050505050505050565b604051806101400160405280600081526020016000815260200160008152602001600081526020016000815260200160008152602001600081526020016000815260200160008152602001600081525090565b604051806101e001604052806000815260200160008152602001600073ffffffffffffffffffffffffffffffffffffffff1681526020016000815260200160008152602001600081526020016060815260200160008152602001600081526020016000815260200160008152602001600081526020016060815260200160008152602001600081525090565b604051806101200160405280600081526020016000815260200160008152602001600073ffffffffffffffffffffffffffffffffffffffff1681526020016000815260200160608152602001600060ff16815260200160008019168152602001600080191681525090565b604051806040016040528060008152602001600081525090565b60405180604001604052806144a36144b0565b8152602001600081525090565b60405180604001604052806000815260200160008152509056fe52656c617920626c6f636b206661696c65643a20696e76616c696420626c6f636b206d6178426c6f636b48656967687452656c617920626c6f636b206661696c65643a20696e76616c696420646966666963756c747952656c617920626c6f636b206661696c65643a20626c6f636b20616c72656164792072656c61796564496e76616c696420536574436865636b706f696e742066756e6374696f6e2063616c6c20696e707574206461746152656c617920626c6f636b206173206120636865636b706f696e74206661696c65643a20696e76616c696420506f5746696e616c697a6520626c6f636b206661696c65643a206e6f7420656e6f75676820636f6e6669726d6174696f6e7346696e616c697a6520626c6f636b206661696c65643a20626c6f636b206e6f742072656c617965642079657452656c617920626c6f636b206173206120636865636b706f696e74206661696c65643a20756e70726f76656e20536574436865636b706f696e7420547846696e616c697a6520626c6f636b206661696c65643a20626c6f636b206973206e6f742062656c6f6e6720746f206c6f6e6765737420636861696e46696e616c697a6520626c6f636b206661696c65643a20626c6f636b20616c72656164792066696e616c697a656452656c617920626c6f636b206661696c65643a20696e76616c69642074696d657374616d70426c6f636b20686173206265656e20616c72656164792072656c61796564206173206120636865636b706f696e74206265666f7265536574436865636b706f696e742875696e743235362c627974657333322c627974657333322c75696e7436342c75696e74385b5d2c627974657333325b5d2c627974657333325b5d2952656c617920626c6f636b206661696c65643a20706172656e7420626c6f636b206e6f742072656c61796564207965744661696c656420746f2063616c6c207072652d636f6d70696c656420636f6e747261637420766572696679457468617368a265627a7a72315820b2d5f11aec178677cc61314043c826f82b13cdba07b0cf061a5dfba71495534e64736f6c634300050e0032","compiler":{"name":"solc","version":"0.5.14+commit.01f1aaa4.Emscripten.clang"},"compileTime":1581071686285}