{"contractName":"UUProxy","abi":[{"inputs":[{"internalType":"address","name":"_admin","type":"address"},{"internalType":"address","name":"_logic","type":"address"},{"internalType":"bytes","name":"_data","type":"bytes"}],"payable":true,"stateMutability":"payable","type":"constructor"},{"anonymous":false,"inputs":[{"indexed":false,"internalType":"address","name":"previousAdmin","type":"address"},{"indexed":false,"internalType":"address","name":"newAdmin","type":"address"}],"name":"AdminChanged","type":"event"},{"anonymous":false,"inputs":[{"indexed":true,"internalType":"address","name":"implementation","type":"address"}],"name":"Upgraded","type":"event"},{"payable":true,"stateMutability":"payable","type":"fallback"},{"constant":false,"inputs":[],"name":"admin","outputs":[{"internalType":"address","name":"","type":"address"}],"payable":false,"stateMutability":"nonpayable","type":"function"},{"constant":false,"inputs":[{"internalType":"address","name":"newAdmin","type":"address"}],"name":"changeAdmin","outputs":[],"payable":false,"stateMutability":"nonpayable","type":"function"},{"constant":false,"inputs":[],"name":"implementation","outputs":[{"internalType":"address","name":"","type":"address"}],"payable":false,"stateMutability":"nonpayable","type":"function"},{"constant":false,"inputs":[{"internalType":"address","name":"newImplementation","type":"address"}],"name":"upgradeTo","outputs":[],"payable":false,"stateMutability":"nonpayable","type":"function"},{"constant":false,"inputs":[{"internalType":"address","name":"newImplementation","type":"address"},{"internalType":"bytes","name":"data","type":"bytes"}],"name":"upgradeToAndCall","outputs":[],"payable":true,"stateMutability":"payable","type":"function"}],"bytecode":"0x6080604052604051610c9b380380610c9b8339818101604052606081101561002657600080fd5b8101908080519060200190929190805190602001909291908051604051939291908464010000000082111561005a57600080fd5b8382019150602082018581111561007057600080fd5b825186600182028301116401000000008211171561008d57600080fd5b8083526020830192505050908051906020019080838360005b838110156100c15780820151818401526020810190506100a6565b50505050905090810190601f1680156100ee5780820380516001836020036101000a031916815260200191505b50604052505050600160405180807f656970313936372e70726f78792e61646d696e000000000000000000000000008152506013019050604051809103902060001c0360001b7fb53127684a568b3173ae13b9f8a6016e243e63b6e8ee1178d6a717850b5d610360001b1461015f57fe5b61016e836102bb60201b60201c565b600160405180807f656970313936372e70726f78792e696d706c656d656e746174696f6e00000000815250601c019050604051809103902060001c0360001b7f360894a13ba1a3210667c828492db98dca3e2076cc3735a920a3ca505d382bbc60001b146101d857fe5b6101e7826102ea60201b60201c565b6000815111156102b35760008273ffffffffffffffffffffffffffffffffffffffff16826040518082805190602001908083835b6020831061023e578051825260208201915060208101905060208303925061021b565b6001836020036101000a038019825116818451168082178552505050505050905001915050600060405180830381855af49150503d806000811461029e576040519150601f19603f3d011682016040523d82523d6000602084013e6102a3565b606091505b50509050806102b157600080fd5b505b505050610390565b60007fb53127684a568b3173ae13b9f8a6016e243e63b6e8ee1178d6a717850b5d610360001b90508181555050565b6102f98161037d60201b60201c565b61034e576040517f08c379a000000000000000000000000000000000000000000000000000000000815260040180806020018281038252603b815260200180610c60603b913960400191505060405180910390fd5b60007f360894a13ba1a3210667c828492db98dca3e2076cc3735a920a3ca505d382bbc60001b90508181555050565b600080823b905060008111915050919050565b6108c18061039f6000396000f3fe60806040526004361061004a5760003560e01c80633659cfe6146100545780634f1ef286146100a55780635c60da1b1461013e5780638f28397014610195578063f851a440146101e6575b61005261023d565b005b34801561006057600080fd5b506100a36004803603602081101561007757600080fd5b81019080803573ffffffffffffffffffffffffffffffffffffffff169060200190929190505050610257565b005b61013c600480360360408110156100bb57600080fd5b81019080803573ffffffffffffffffffffffffffffffffffffffff169060200190929190803590602001906401000000008111156100f857600080fd5b82018360208201111561010a57600080fd5b8035906020019184600183028401116401000000008311171561012c57600080fd5b90919293919293905050506102ac565b005b34801561014a57600080fd5b50610153610382565b604051808273ffffffffffffffffffffffffffffffffffffffff1673ffffffffffffffffffffffffffffffffffffffff16815260200191505060405180910390f35b3480156101a157600080fd5b506101e4600480360360208110156101b857600080fd5b81019080803573ffffffffffffffffffffffffffffffffffffffff1690602001909291905050506103da565b005b3480156101f257600080fd5b506101fb610553565b604051808273ffffffffffffffffffffffffffffffffffffffff1673ffffffffffffffffffffffffffffffffffffffff16815260200191505060405180910390f35b6102456105ab565b610255610250610641565b610672565b565b61025f610698565b73ffffffffffffffffffffffffffffffffffffffff163373ffffffffffffffffffffffffffffffffffffffff1614156102a05761029b816106c9565b6102a9565b6102a861023d565b5b50565b6102b4610698565b73ffffffffffffffffffffffffffffffffffffffff163373ffffffffffffffffffffffffffffffffffffffff161415610374576102f0836106c9565b60008373ffffffffffffffffffffffffffffffffffffffff168383604051808383808284378083019250505092505050600060405180830381855af49150503d806000811461035b576040519150601f19603f3d011682016040523d82523d6000602084013e610360565b606091505b505090508061036e57600080fd5b5061037d565b61037c61023d565b5b505050565b600061038c610698565b73ffffffffffffffffffffffffffffffffffffffff163373ffffffffffffffffffffffffffffffffffffffff1614156103ce576103c7610641565b90506103d7565b6103d661023d565b5b90565b6103e2610698565b73ffffffffffffffffffffffffffffffffffffffff163373ffffffffffffffffffffffffffffffffffffffff16141561054757600073ffffffffffffffffffffffffffffffffffffffff168173ffffffffffffffffffffffffffffffffffffffff16141561049b576040517f08c379a000000000000000000000000000000000000000000000000000000000815260040180806020018281038252603681526020018061081c6036913960400191505060405180910390fd5b7f7e644d79422f17c01e4894b5f4f588d331ebfa28653d42ae832dc59e38c9798f6104c4610698565b82604051808373ffffffffffffffffffffffffffffffffffffffff1673ffffffffffffffffffffffffffffffffffffffff1681526020018273ffffffffffffffffffffffffffffffffffffffff1673ffffffffffffffffffffffffffffffffffffffff1681526020019250505060405180910390a161054281610718565b610550565b61054f61023d565b5b50565b600061055d610698565b73ffffffffffffffffffffffffffffffffffffffff163373ffffffffffffffffffffffffffffffffffffffff16141561059f57610598610698565b90506105a8565b6105a761023d565b5b90565b6105b3610698565b73ffffffffffffffffffffffffffffffffffffffff163373ffffffffffffffffffffffffffffffffffffffff161415610637576040517f08c379a00000000000000000000000000000000000000000000000000000000081526004018080602001828103825260328152602001806107ea6032913960400191505060405180910390fd5b61063f610747565b565b6000807f360894a13ba1a3210667c828492db98dca3e2076cc3735a920a3ca505d382bbc60001b9050805491505090565b3660008037600080366000845af43d6000803e8060008114610693573d6000f35b3d6000fd5b6000807fb53127684a568b3173ae13b9f8a6016e243e63b6e8ee1178d6a717850b5d610360001b9050805491505090565b6106d281610749565b8073ffffffffffffffffffffffffffffffffffffffff167fbc7cd75a20ee27fd9adebab32041f755214dbc6bffa90cc0225b39da2e5c2d3b60405160405180910390a250565b60007fb53127684a568b3173ae13b9f8a6016e243e63b6e8ee1178d6a717850b5d610360001b90508181555050565b565b610752816107d6565b6107a7576040517f08c379a000000000000000000000000000000000000000000000000000000000815260040180806020018281038252603b815260200180610852603b913960400191505060405180910390fd5b60007f360894a13ba1a3210667c828492db98dca3e2076cc3735a920a3ca505d382bbc60001b90508181555050565b600080823b90506000811191505091905056fe43616e6e6f742063616c6c2066616c6c6261636b2066756e6374696f6e2066726f6d207468652070726f78792061646d696e43616e6e6f74206368616e6765207468652061646d696e206f6620612070726f787920746f20746865207a65726f206164647265737343616e6e6f742073657420612070726f787920696d706c656d656e746174696f6e20746f2061206e6f6e2d636f6e74726163742061646472657373a265627a7a7231582048d3fa2ceea37825f9c4155d7b6d910c51ab138f2379fde95f006ddf132f9f0664736f6c634300050e003243616e6e6f742073657420612070726f787920696d706c656d656e746174696f6e20746f2061206e6f6e2d636f6e74726163742061646472657373","compiler":{"name":"solc","version":"0.5.14+commit.01f1aaa4.Emscripten.clang"},"compileTime":1581071686285}